{
	"contracts/NFTDAO_staking.sol": {
		"TokenFarm": {
			"abi": [
				{
					"inputs": [
						{
							"internalType": "contract ERC20",
							"name": "_DAOToken",
							"type": "address"
						},
						{
							"internalType": "contract ERC20",
							"name": "_DappToken",
							"type": "address"
						}
					],
					"stateMutability": "nonpayable",
					"type": "constructor"
				},
				{
					"inputs": [],
					"name": "DAOToken",
					"outputs": [
						{
							"internalType": "contract ERC20",
							"name": "",
							"type": "address"
						}
					],
					"stateMutability": "view",
					"type": "function"
				},
				{
					"inputs": [],
					"name": "DappToken",
					"outputs": [
						{
							"internalType": "contract ERC20",
							"name": "",
							"type": "address"
						}
					],
					"stateMutability": "view",
					"type": "function"
				},
				{
					"inputs": [
						{
							"internalType": "address",
							"name": "",
							"type": "address"
						}
					],
					"name": "hasStaked",
					"outputs": [
						{
							"internalType": "bool",
							"name": "",
							"type": "bool"
						}
					],
					"stateMutability": "view",
					"type": "function"
				},
				{
					"inputs": [
						{
							"internalType": "address",
							"name": "",
							"type": "address"
						}
					],
					"name": "isStaking",
					"outputs": [
						{
							"internalType": "bool",
							"name": "",
							"type": "bool"
						}
					],
					"stateMutability": "view",
					"type": "function"
				},
				{
					"inputs": [],
					"name": "issueTokens",
					"outputs": [],
					"stateMutability": "nonpayable",
					"type": "function"
				},
				{
					"inputs": [],
					"name": "name",
					"outputs": [
						{
							"internalType": "string",
							"name": "",
							"type": "string"
						}
					],
					"stateMutability": "view",
					"type": "function"
				},
				{
					"inputs": [],
					"name": "owner",
					"outputs": [
						{
							"internalType": "address",
							"name": "",
							"type": "address"
						}
					],
					"stateMutability": "view",
					"type": "function"
				},
				{
					"inputs": [
						{
							"internalType": "uint256",
							"name": "_amount",
							"type": "uint256"
						}
					],
					"name": "stakeTokens",
					"outputs": [],
					"stateMutability": "nonpayable",
					"type": "function"
				},
				{
					"inputs": [
						{
							"internalType": "uint256",
							"name": "",
							"type": "uint256"
						}
					],
					"name": "stakers",
					"outputs": [
						{
							"internalType": "address",
							"name": "",
							"type": "address"
						}
					],
					"stateMutability": "view",
					"type": "function"
				},
				{
					"inputs": [
						{
							"internalType": "address",
							"name": "",
							"type": "address"
						}
					],
					"name": "stakingBalance",
					"outputs": [
						{
							"internalType": "uint256",
							"name": "",
							"type": "uint256"
						}
					],
					"stateMutability": "view",
					"type": "function"
				},
				{
					"inputs": [],
					"name": "unstakeTokens",
					"outputs": [],
					"stateMutability": "nonpayable",
					"type": "function"
				}
			],
			"devdoc": {
				"kind": "dev",
				"methods": {},
				"version": 1
			},
			"evm": {
				"assembly": "    /* \"contracts/NFTDAO_staking.sol\":151:2673  contract TokenFarm {\r... */\n  mstore(0x40, 0x80)\n    /* \"contracts/NFTDAO_staking.sol\":177:217  string public name = \"NFTDAO Token Farm\" */\n  mload(0x40)\n  dup1\n  0x40\n  add\n  0x40\n  mstore\n  dup1\n  0x11\n  dup2\n  mstore\n  0x20\n  add\n  0x4e465444414f20546f6b656e204661726d000000000000000000000000000000\n  dup2\n  mstore\n  pop\n  0x00\n  swap1\n  dup1\n  mload\n  swap1\n  0x20\n  add\n  swap1\n  tag_1\n  swap3\n  swap2\n  swap1\n  tag_2\n  jump\t// in\ntag_1:\n  pop\n    /* \"contracts/NFTDAO_staking.sol\":528:677  constructor(ERC20 _DAOToken, ERC20 _DappToken)  {\r... */\n  callvalue\n  dup1\n  iszero\n  tag_3\n  jumpi\n  0x00\n  dup1\n  revert\ntag_3:\n  pop\n  mload(0x40)\n  sub(codesize, bytecodeSize)\n  dup1\n  bytecodeSize\n  dup4\n  codecopy\n  dup2\n  dup2\n  add\n  0x40\n  mstore\n  dup2\n  add\n  swap1\n  tag_4\n  swap2\n  swap1\n  tag_5\n  jump\t// in\ntag_4:\n    /* \"contracts/NFTDAO_staking.sol\":598:607  _DAOToken */\n  dup2\n    /* \"contracts/NFTDAO_staking.sol\":587:595  DAOToken */\n  0x02\n  0x00\n    /* \"contracts/NFTDAO_staking.sol\":587:607  DAOToken = _DAOToken */\n  0x0100\n  exp\n  dup2\n  sload\n  dup2\n  0xffffffffffffffffffffffffffffffffffffffff\n  mul\n  not\n  and\n  swap1\n  dup4\n  0xffffffffffffffffffffffffffffffffffffffff\n  and\n  mul\n  or\n  swap1\n  sstore\n  pop\n    /* \"contracts/NFTDAO_staking.sol\":630:640  _DappToken */\n  dup1\n    /* \"contracts/NFTDAO_staking.sol\":618:627  DappToken */\n  0x03\n  0x00\n    /* \"contracts/NFTDAO_staking.sol\":618:640  DappToken = _DappToken */\n  0x0100\n  exp\n  dup2\n  sload\n  dup2\n  0xffffffffffffffffffffffffffffffffffffffff\n  mul\n  not\n  and\n  swap1\n  dup4\n  0xffffffffffffffffffffffffffffffffffffffff\n  and\n  mul\n  or\n  swap1\n  sstore\n  pop\n    /* \"contracts/NFTDAO_staking.sol\":659:669  msg.sender */\n  caller\n    /* \"contracts/NFTDAO_staking.sol\":651:656  owner */\n  0x01\n  0x00\n    /* \"contracts/NFTDAO_staking.sol\":651:669  owner = msg.sender */\n  0x0100\n  exp\n  dup2\n  sload\n  dup2\n  0xffffffffffffffffffffffffffffffffffffffff\n  mul\n  not\n  and\n  swap1\n  dup4\n  0xffffffffffffffffffffffffffffffffffffffff\n  and\n  mul\n  or\n  swap1\n  sstore\n  pop\n    /* \"contracts/NFTDAO_staking.sol\":528:677  constructor(ERC20 _DAOToken, ERC20 _DappToken)  {\r... */\n  pop\n  pop\n    /* \"contracts/NFTDAO_staking.sol\":151:2673  contract TokenFarm {\r... */\n  jump(tag_8)\ntag_2:\n  dup3\n  dup1\n  sload\n  tag_9\n  swap1\n  tag_10\n  jump\t// in\ntag_9:\n  swap1\n  0x00\n  mstore\n  keccak256(0x00, 0x20)\n  swap1\n  0x1f\n  add\n  0x20\n  swap1\n  div\n  dup2\n  add\n  swap3\n  dup3\n  tag_12\n  jumpi\n  0x00\n  dup6\n  sstore\n  jump(tag_11)\ntag_12:\n  dup3\n  0x1f\n  lt\n  tag_13\n  jumpi\n  dup1\n  mload\n  not(0xff)\n  and\n  dup4\n  dup1\n  add\n  or\n  dup6\n  sstore\n  jump(tag_11)\ntag_13:\n  dup3\n  dup1\n  add\n  0x01\n  add\n  dup6\n  sstore\n  dup3\n  iszero\n  tag_11\n  jumpi\n  swap2\n  dup3\n  add\ntag_14:\n  dup3\n  dup2\n  gt\n  iszero\n  tag_15\n  jumpi\n  dup3\n  mload\n  dup3\n  sstore\n  swap2\n  0x20\n  add\n  swap2\n  swap1\n  0x01\n  add\n  swap1\n  jump(tag_14)\ntag_15:\ntag_11:\n  pop\n  swap1\n  pop\n  tag_16\n  swap2\n  swap1\n  tag_17\n  jump\t// in\ntag_16:\n  pop\n  swap1\n  jump\t// out\ntag_17:\ntag_18:\n  dup1\n  dup3\n  gt\n  iszero\n  tag_19\n  jumpi\n  0x00\n  dup2\n  0x00\n  swap1\n  sstore\n  pop\n  0x01\n  add\n  jump(tag_18)\ntag_19:\n  pop\n  swap1\n  jump\t// out\n    /* \"#utility.yul\":7:176   */\ntag_21:\n  0x00\n    /* \"#utility.yul\":108:114   */\n  dup2\n    /* \"#utility.yul\":102:115   */\n  mload\n    /* \"#utility.yul\":93:115   */\n  swap1\n  pop\n    /* \"#utility.yul\":124:170   */\n  tag_23\n    /* \"#utility.yul\":164:169   */\n  dup2\n    /* \"#utility.yul\":124:170   */\n  tag_24\n  jump\t// in\ntag_23:\n    /* \"#utility.yul\":83:176   */\n  swap3\n  swap2\n  pop\n  pop\n  jump\t// out\n    /* \"#utility.yul\":182:674   */\ntag_5:\n  0x00\n  dup1\n    /* \"#utility.yul\":344:346   */\n  0x40\n    /* \"#utility.yul\":332:341   */\n  dup4\n    /* \"#utility.yul\":323:330   */\n  dup6\n    /* \"#utility.yul\":319:342   */\n  sub\n    /* \"#utility.yul\":315:347   */\n  slt\n    /* \"#utility.yul\":312:314   */\n  iszero\n  tag_26\n  jumpi\n    /* \"#utility.yul\":360:361   */\n  0x00\n    /* \"#utility.yul\":357:358   */\n  dup1\n    /* \"#utility.yul\":350:362   */\n  revert\n    /* \"#utility.yul\":312:314   */\ntag_26:\n    /* \"#utility.yul\":403:404   */\n  0x00\n    /* \"#utility.yul\":428:505   */\n  tag_27\n    /* \"#utility.yul\":497:504   */\n  dup6\n    /* \"#utility.yul\":488:494   */\n  dup3\n    /* \"#utility.yul\":477:486   */\n  dup7\n    /* \"#utility.yul\":473:495   */\n  add\n    /* \"#utility.yul\":428:505   */\n  tag_21\n  jump\t// in\ntag_27:\n    /* \"#utility.yul\":418:505   */\n  swap3\n  pop\n    /* \"#utility.yul\":374:515   */\n  pop\n    /* \"#utility.yul\":554:556   */\n  0x20\n    /* \"#utility.yul\":580:657   */\n  tag_28\n    /* \"#utility.yul\":649:656   */\n  dup6\n    /* \"#utility.yul\":640:646   */\n  dup3\n    /* \"#utility.yul\":629:638   */\n  dup7\n    /* \"#utility.yul\":625:647   */\n  add\n    /* \"#utility.yul\":580:657   */\n  tag_21\n  jump\t// in\ntag_28:\n    /* \"#utility.yul\":570:657   */\n  swap2\n  pop\n    /* \"#utility.yul\":525:667   */\n  pop\n    /* \"#utility.yul\":302:674   */\n  swap3\n  pop\n  swap3\n  swap1\n  pop\n  jump\t// out\n    /* \"#utility.yul\":680:776   */\ntag_29:\n  0x00\n    /* \"#utility.yul\":746:770   */\n  tag_31\n    /* \"#utility.yul\":764:769   */\n  dup3\n    /* \"#utility.yul\":746:770   */\n  tag_32\n  jump\t// in\ntag_31:\n    /* \"#utility.yul\":735:770   */\n  swap1\n  pop\n    /* \"#utility.yul\":725:776   */\n  swap2\n  swap1\n  pop\n  jump\t// out\n    /* \"#utility.yul\":782:891   */\ntag_33:\n  0x00\n    /* \"#utility.yul\":861:885   */\n  tag_35\n    /* \"#utility.yul\":879:884   */\n  dup3\n    /* \"#utility.yul\":861:885   */\n  tag_29\n  jump\t// in\ntag_35:\n    /* \"#utility.yul\":850:885   */\n  swap1\n  pop\n    /* \"#utility.yul\":840:891   */\n  swap2\n  swap1\n  pop\n  jump\t// out\n    /* \"#utility.yul\":897:1023   */\ntag_32:\n  0x00\n    /* \"#utility.yul\":974:1016   */\n  0xffffffffffffffffffffffffffffffffffffffff\n    /* \"#utility.yul\":967:972   */\n  dup3\n    /* \"#utility.yul\":963:1017   */\n  and\n    /* \"#utility.yul\":952:1017   */\n  swap1\n  pop\n    /* \"#utility.yul\":942:1023   */\n  swap2\n  swap1\n  pop\n  jump\t// out\n    /* \"#utility.yul\":1029:1349   */\ntag_10:\n  0x00\n    /* \"#utility.yul\":1110:1111   */\n  0x02\n    /* \"#utility.yul\":1104:1108   */\n  dup3\n    /* \"#utility.yul\":1100:1112   */\n  div\n    /* \"#utility.yul\":1090:1112   */\n  swap1\n  pop\n    /* \"#utility.yul\":1157:1158   */\n  0x01\n    /* \"#utility.yul\":1151:1155   */\n  dup3\n    /* \"#utility.yul\":1147:1159   */\n  and\n    /* \"#utility.yul\":1178:1196   */\n  dup1\n    /* \"#utility.yul\":1168:1170   */\n  tag_38\n  jumpi\n    /* \"#utility.yul\":1234:1238   */\n  0x7f\n    /* \"#utility.yul\":1226:1232   */\n  dup3\n    /* \"#utility.yul\":1222:1239   */\n  and\n    /* \"#utility.yul\":1212:1239   */\n  swap2\n  pop\n    /* \"#utility.yul\":1168:1170   */\ntag_38:\n    /* \"#utility.yul\":1296:1298   */\n  0x20\n    /* \"#utility.yul\":1288:1294   */\n  dup3\n    /* \"#utility.yul\":1285:1299   */\n  lt\n    /* \"#utility.yul\":1265:1283   */\n  dup2\n    /* \"#utility.yul\":1262:1300   */\n  eq\n    /* \"#utility.yul\":1259:1261   */\n  iszero\n  tag_39\n  jumpi\n    /* \"#utility.yul\":1315:1333   */\n  tag_40\n  tag_41\n  jump\t// in\ntag_40:\n    /* \"#utility.yul\":1259:1261   */\ntag_39:\n    /* \"#utility.yul\":1080:1349   */\n  pop\n  swap2\n  swap1\n  pop\n  jump\t// out\n    /* \"#utility.yul\":1355:1535   */\ntag_41:\n    /* \"#utility.yul\":1403:1480   */\n  0x4e487b7100000000000000000000000000000000000000000000000000000000\n    /* \"#utility.yul\":1400:1401   */\n  0x00\n    /* \"#utility.yul\":1393:1481   */\n  mstore\n    /* \"#utility.yul\":1500:1504   */\n  0x22\n    /* \"#utility.yul\":1497:1498   */\n  0x04\n    /* \"#utility.yul\":1490:1505   */\n  mstore\n    /* \"#utility.yul\":1524:1528   */\n  0x24\n    /* \"#utility.yul\":1521:1522   */\n  0x00\n    /* \"#utility.yul\":1514:1529   */\n  revert\n    /* \"#utility.yul\":1541:1689   */\ntag_24:\n    /* \"#utility.yul\":1627:1664   */\n  tag_44\n    /* \"#utility.yul\":1658:1663   */\n  dup2\n    /* \"#utility.yul\":1627:1664   */\n  tag_33\n  jump\t// in\ntag_44:\n    /* \"#utility.yul\":1620:1625   */\n  dup2\n    /* \"#utility.yul\":1617:1665   */\n  eq\n    /* \"#utility.yul\":1607:1609   */\n  tag_45\n  jumpi\n    /* \"#utility.yul\":1679:1680   */\n  0x00\n    /* \"#utility.yul\":1676:1677   */\n  dup1\n    /* \"#utility.yul\":1669:1681   */\n  revert\n    /* \"#utility.yul\":1607:1609   */\ntag_45:\n    /* \"#utility.yul\":1597:1689   */\n  pop\n  jump\t// out\n    /* \"contracts/NFTDAO_staking.sol\":151:2673  contract TokenFarm {\r... */\ntag_8:\n  dataSize(sub_0)\n  dup1\n  dataOffset(sub_0)\n  0x00\n  codecopy\n  0x00\n  return\nstop\n\nsub_0: assembly {\n        /* \"contracts/NFTDAO_staking.sol\":151:2673  contract TokenFarm {\r... */\n      mstore(0x40, 0x80)\n      callvalue\n      dup1\n      iszero\n      tag_1\n      jumpi\n      0x00\n      dup1\n      revert\n    tag_1:\n      pop\n      jumpi(tag_2, lt(calldatasize, 0x04))\n      shr(0xe0, calldataload(0x00))\n      dup1\n      0x7547c7a3\n      gt\n      tag_14\n      jumpi\n      dup1\n      0x7547c7a3\n      eq\n      tag_8\n      jumpi\n      dup1\n      0x8da5cb5b\n      eq\n      tag_9\n      jumpi\n      dup1\n      0xa5ce413b\n      eq\n      tag_10\n      jumpi\n      dup1\n      0xc93c8f34\n      eq\n      tag_11\n      jumpi\n      dup1\n      0xd585b852\n      eq\n      tag_12\n      jumpi\n      dup1\n      0xfd5e6dd1\n      eq\n      tag_13\n      jumpi\n      jump(tag_2)\n    tag_14:\n      dup1\n      0x06fdde03\n      eq\n      tag_3\n      jumpi\n      dup1\n      0x45bc78ab\n      eq\n      tag_4\n      jumpi\n      dup1\n      0x60ab5852\n      eq\n      tag_5\n      jumpi\n      dup1\n      0x6f49712b\n      eq\n      tag_6\n      jumpi\n      dup1\n      0x6f75cd14\n      eq\n      tag_7\n      jumpi\n    tag_2:\n      0x00\n      dup1\n      revert\n        /* \"contracts/NFTDAO_staking.sol\":177:217  string public name = \"NFTDAO Token Farm\" */\n    tag_3:\n      tag_15\n      tag_16\n      jump\t// in\n    tag_15:\n      mload(0x40)\n      tag_17\n      swap2\n      swap1\n      tag_18\n      jump\t// in\n    tag_17:\n      mload(0x40)\n      dup1\n      swap2\n      sub\n      swap1\n      return\n        /* \"contracts/NFTDAO_staking.sol\":374:423  mapping(address => uint256) public stakingBalance */\n    tag_4:\n      tag_19\n      0x04\n      dup1\n      calldatasize\n      sub\n      dup2\n      add\n      swap1\n      tag_20\n      swap2\n      swap1\n      tag_21\n      jump\t// in\n    tag_20:\n      tag_22\n      jump\t// in\n    tag_19:\n      mload(0x40)\n      tag_23\n      swap2\n      swap1\n      tag_24\n      jump\t// in\n    tag_23:\n      mload(0x40)\n      dup1\n      swap2\n      sub\n      swap1\n      return\n        /* \"contracts/NFTDAO_staking.sol\":2244:2670  function issueTokens() public {\r... */\n    tag_5:\n      tag_25\n      tag_26\n      jump\t// in\n    tag_25:\n      stop\n        /* \"contracts/NFTDAO_staking.sol\":478:519  mapping(address => bool) public isStaking */\n    tag_6:\n      tag_27\n      0x04\n      dup1\n      calldatasize\n      sub\n      dup2\n      add\n      swap1\n      tag_28\n      swap2\n      swap1\n      tag_21\n      jump\t// in\n    tag_28:\n      tag_29\n      jump\t// in\n    tag_27:\n      mload(0x40)\n      tag_30\n      swap2\n      swap1\n      tag_31\n      jump\t// in\n    tag_30:\n      mload(0x40)\n      dup1\n      swap2\n      sub\n      swap1\n      return\n        /* \"contracts/NFTDAO_staking.sol\":279:301  ERC20 public DappToken */\n    tag_7:\n      tag_32\n      tag_33\n      jump\t// in\n    tag_32:\n      mload(0x40)\n      tag_34\n      swap2\n      swap1\n      tag_35\n      jump\t// in\n    tag_34:\n      mload(0x40)\n      dup1\n      swap2\n      sub\n      swap1\n      return\n        /* \"contracts/NFTDAO_staking.sol\":831:1835  function stakeTokens(uint256 _amount) public {\r... */\n    tag_8:\n      tag_36\n      0x04\n      dup1\n      calldatasize\n      sub\n      dup2\n      add\n      swap1\n      tag_37\n      swap2\n      swap1\n      tag_38\n      jump\t// in\n    tag_37:\n      tag_39\n      jump\t// in\n    tag_36:\n      stop\n        /* \"contracts/NFTDAO_staking.sol\":224:244  address public owner */\n    tag_9:\n      tag_40\n      tag_41\n      jump\t// in\n    tag_40:\n      mload(0x40)\n      tag_42\n      swap2\n      swap1\n      tag_43\n      jump\t// in\n    tag_42:\n      mload(0x40)\n      dup1\n      swap2\n      sub\n      swap1\n      return\n        /* \"contracts/NFTDAO_staking.sol\":1894:2194  function unstakeTokens() public {\r... */\n    tag_10:\n      tag_44\n      tag_45\n      jump\t// in\n    tag_44:\n      stop\n        /* \"contracts/NFTDAO_staking.sol\":430:471  mapping(address => bool) public hasStaked */\n    tag_11:\n      tag_46\n      0x04\n      dup1\n      calldatasize\n      sub\n      dup2\n      add\n      swap1\n      tag_47\n      swap2\n      swap1\n      tag_21\n      jump\t// in\n    tag_47:\n      tag_48\n      jump\t// in\n    tag_46:\n      mload(0x40)\n      tag_49\n      swap2\n      swap1\n      tag_31\n      jump\t// in\n    tag_49:\n      mload(0x40)\n      dup1\n      swap2\n      sub\n      swap1\n      return\n        /* \"contracts/NFTDAO_staking.sol\":251:272  ERC20 public DAOToken */\n    tag_12:\n      tag_50\n      tag_51\n      jump\t// in\n    tag_50:\n      mload(0x40)\n      tag_52\n      swap2\n      swap1\n      tag_35\n      jump\t// in\n    tag_52:\n      mload(0x40)\n      dup1\n      swap2\n      sub\n      swap1\n      return\n        /* \"contracts/NFTDAO_staking.sol\":343:367  address[] public stakers */\n    tag_13:\n      tag_53\n      0x04\n      dup1\n      calldatasize\n      sub\n      dup2\n      add\n      swap1\n      tag_54\n      swap2\n      swap1\n      tag_38\n      jump\t// in\n    tag_54:\n      tag_55\n      jump\t// in\n    tag_53:\n      mload(0x40)\n      tag_56\n      swap2\n      swap1\n      tag_43\n      jump\t// in\n    tag_56:\n      mload(0x40)\n      dup1\n      swap2\n      sub\n      swap1\n      return\n        /* \"contracts/NFTDAO_staking.sol\":177:217  string public name = \"NFTDAO Token Farm\" */\n    tag_16:\n      0x00\n      dup1\n      sload\n      tag_57\n      swap1\n      tag_58\n      jump\t// in\n    tag_57:\n      dup1\n      0x1f\n      add\n      0x20\n      dup1\n      swap2\n      div\n      mul\n      0x20\n      add\n      mload(0x40)\n      swap1\n      dup2\n      add\n      0x40\n      mstore\n      dup1\n      swap3\n      swap2\n      swap1\n      dup2\n      dup2\n      mstore\n      0x20\n      add\n      dup3\n      dup1\n      sload\n      tag_59\n      swap1\n      tag_58\n      jump\t// in\n    tag_59:\n      dup1\n      iszero\n      tag_60\n      jumpi\n      dup1\n      0x1f\n      lt\n      tag_61\n      jumpi\n      0x0100\n      dup1\n      dup4\n      sload\n      div\n      mul\n      dup4\n      mstore\n      swap2\n      0x20\n      add\n      swap2\n      jump(tag_60)\n    tag_61:\n      dup3\n      add\n      swap2\n      swap1\n      0x00\n      mstore\n      keccak256(0x00, 0x20)\n      swap1\n    tag_62:\n      dup2\n      sload\n      dup2\n      mstore\n      swap1\n      0x01\n      add\n      swap1\n      0x20\n      add\n      dup1\n      dup4\n      gt\n      tag_62\n      jumpi\n      dup3\n      swap1\n      sub\n      0x1f\n      and\n      dup3\n      add\n      swap2\n    tag_60:\n      pop\n      pop\n      pop\n      pop\n      pop\n      dup2\n      jump\t// out\n        /* \"contracts/NFTDAO_staking.sol\":374:423  mapping(address => uint256) public stakingBalance */\n    tag_22:\n      mstore(0x20, 0x05)\n      dup1\n      0x00\n      mstore\n      keccak256(0x00, 0x40)\n      0x00\n      swap2\n      pop\n      swap1\n      pop\n      sload\n      dup2\n      jump\t// out\n        /* \"contracts/NFTDAO_staking.sol\":2244:2670  function issueTokens() public {\r... */\n    tag_26:\n        /* \"contracts/NFTDAO_staking.sol\":2307:2312  owner */\n      0x01\n      0x00\n      swap1\n      sload\n      swap1\n      0x0100\n      exp\n      swap1\n      div\n      0xffffffffffffffffffffffffffffffffffffffff\n      and\n        /* \"contracts/NFTDAO_staking.sol\":2293:2312  msg.sender == owner */\n      0xffffffffffffffffffffffffffffffffffffffff\n      and\n        /* \"contracts/NFTDAO_staking.sol\":2293:2303  msg.sender */\n      caller\n        /* \"contracts/NFTDAO_staking.sol\":2293:2312  msg.sender == owner */\n      0xffffffffffffffffffffffffffffffffffffffff\n      and\n      eq\n        /* \"contracts/NFTDAO_staking.sol\":2285:2341  require(msg.sender == owner, \"caller must be the owner\") */\n      tag_64\n      jumpi\n      mload(0x40)\n      0x08c379a000000000000000000000000000000000000000000000000000000000\n      dup2\n      mstore\n      0x04\n      add\n      tag_65\n      swap1\n      tag_66\n      jump\t// in\n    tag_65:\n      mload(0x40)\n      dup1\n      swap2\n      sub\n      swap1\n      revert\n    tag_64:\n        /* \"contracts/NFTDAO_staking.sol\":2402:2411  uint256 i */\n      0x00\n        /* \"contracts/NFTDAO_staking.sol\":2397:2661  for (uint256 i = 0; i < stakers.length; i++) {\r... */\n    tag_67:\n        /* \"contracts/NFTDAO_staking.sol\":2421:2428  stakers */\n      0x04\n        /* \"contracts/NFTDAO_staking.sol\":2421:2435  stakers.length */\n      dup1\n      sload\n      swap1\n      pop\n        /* \"contracts/NFTDAO_staking.sol\":2417:2418  i */\n      dup2\n        /* \"contracts/NFTDAO_staking.sol\":2417:2435  i < stakers.length */\n      lt\n        /* \"contracts/NFTDAO_staking.sol\":2397:2661  for (uint256 i = 0; i < stakers.length; i++) {\r... */\n      iszero\n      tag_68\n      jumpi\n        /* \"contracts/NFTDAO_staking.sol\":2457:2474  address recipient */\n      0x00\n        /* \"contracts/NFTDAO_staking.sol\":2477:2484  stakers */\n      0x04\n        /* \"contracts/NFTDAO_staking.sol\":2485:2486  i */\n      dup3\n        /* \"contracts/NFTDAO_staking.sol\":2477:2487  stakers[i] */\n      dup2\n      sload\n      dup2\n      lt\n      tag_70\n      jumpi\n      mstore(0x00, 0x4e487b7100000000000000000000000000000000000000000000000000000000)\n      mstore(0x04, 0x32)\n      revert(0x00, 0x24)\n    tag_70:\n      swap1\n      0x00\n      mstore\n      keccak256(0x00, 0x20)\n      add\n      0x00\n      swap1\n      sload\n      swap1\n      0x0100\n      exp\n      swap1\n      div\n      0xffffffffffffffffffffffffffffffffffffffff\n      and\n        /* \"contracts/NFTDAO_staking.sol\":2457:2487  address recipient = stakers[i] */\n      swap1\n      pop\n        /* \"contracts/NFTDAO_staking.sol\":2502:2517  uint256 balance */\n      0x00\n        /* \"contracts/NFTDAO_staking.sol\":2520:2534  stakingBalance */\n      0x05\n        /* \"contracts/NFTDAO_staking.sol\":2520:2545  stakingBalance[recipient] */\n      0x00\n        /* \"contracts/NFTDAO_staking.sol\":2535:2544  recipient */\n      dup4\n        /* \"contracts/NFTDAO_staking.sol\":2520:2545  stakingBalance[recipient] */\n      0xffffffffffffffffffffffffffffffffffffffff\n      and\n      0xffffffffffffffffffffffffffffffffffffffff\n      and\n      dup2\n      mstore\n      0x20\n      add\n      swap1\n      dup2\n      mstore\n      0x20\n      add\n      0x00\n      keccak256\n      sload\n        /* \"contracts/NFTDAO_staking.sol\":2502:2545  uint256 balance = stakingBalance[recipient] */\n      swap1\n      pop\n        /* \"contracts/NFTDAO_staking.sol\":2574:2575  0 */\n      0x00\n        /* \"contracts/NFTDAO_staking.sol\":2564:2571  balance */\n      dup2\n        /* \"contracts/NFTDAO_staking.sol\":2564:2575  balance > 0 */\n      gt\n        /* \"contracts/NFTDAO_staking.sol\":2560:2650  if (balance > 0) {\r... */\n      iszero\n      tag_72\n      jumpi\n        /* \"contracts/NFTDAO_staking.sol\":2596:2605  DappToken */\n      0x03\n      0x00\n      swap1\n      sload\n      swap1\n      0x0100\n      exp\n      swap1\n      div\n      0xffffffffffffffffffffffffffffffffffffffff\n      and\n        /* \"contracts/NFTDAO_staking.sol\":2596:2614  DappToken.transfer */\n      0xffffffffffffffffffffffffffffffffffffffff\n      and\n      0xa9059cbb\n        /* \"contracts/NFTDAO_staking.sol\":2615:2624  recipient */\n      dup4\n        /* \"contracts/NFTDAO_staking.sol\":2626:2633  balance */\n      dup4\n        /* \"contracts/NFTDAO_staking.sol\":2596:2634  DappToken.transfer(recipient, balance) */\n      mload(0x40)\n      dup4\n      0xffffffff\n      and\n      0xe0\n      shl\n      dup2\n      mstore\n      0x04\n      add\n      tag_73\n      swap3\n      swap2\n      swap1\n      tag_74\n      jump\t// in\n    tag_73:\n      0x20\n      mload(0x40)\n      dup1\n      dup4\n      sub\n      dup2\n      0x00\n      dup8\n      dup1\n      extcodesize\n      iszero\n      dup1\n      iszero\n      tag_75\n      jumpi\n      0x00\n      dup1\n      revert\n    tag_75:\n      pop\n      gas\n      call\n      iszero\n      dup1\n      iszero\n      tag_77\n      jumpi\n      returndatasize\n      0x00\n      dup1\n      returndatacopy\n      revert(0x00, returndatasize)\n    tag_77:\n      pop\n      pop\n      pop\n      pop\n      mload(0x40)\n      returndatasize\n      not(0x1f)\n      0x1f\n      dup3\n      add\n      and\n      dup3\n      add\n      dup1\n      0x40\n      mstore\n      pop\n      dup2\n      add\n      swap1\n      tag_78\n      swap2\n      swap1\n      tag_79\n      jump\t// in\n    tag_78:\n      pop\n        /* \"contracts/NFTDAO_staking.sol\":2560:2650  if (balance > 0) {\r... */\n    tag_72:\n        /* \"contracts/NFTDAO_staking.sol\":2397:2661  for (uint256 i = 0; i < stakers.length; i++) {\r... */\n      pop\n      pop\n        /* \"contracts/NFTDAO_staking.sol\":2437:2440  i++ */\n      dup1\n      dup1\n      tag_80\n      swap1\n      tag_81\n      jump\t// in\n    tag_80:\n      swap2\n      pop\n      pop\n        /* \"contracts/NFTDAO_staking.sol\":2397:2661  for (uint256 i = 0; i < stakers.length; i++) {\r... */\n      jump(tag_67)\n    tag_68:\n      pop\n        /* \"contracts/NFTDAO_staking.sol\":2244:2670  function issueTokens() public {\r... */\n      jump\t// out\n        /* \"contracts/NFTDAO_staking.sol\":478:519  mapping(address => bool) public isStaking */\n    tag_29:\n      mstore(0x20, 0x07)\n      dup1\n      0x00\n      mstore\n      keccak256(0x00, 0x40)\n      0x00\n      swap2\n      pop\n      sload\n      swap1\n      0x0100\n      exp\n      swap1\n      div\n      0xff\n      and\n      dup2\n      jump\t// out\n        /* \"contracts/NFTDAO_staking.sol\":279:301  ERC20 public DappToken */\n    tag_33:\n      0x03\n      0x00\n      swap1\n      sload\n      swap1\n      0x0100\n      exp\n      swap1\n      div\n      0xffffffffffffffffffffffffffffffffffffffff\n      and\n      dup2\n      jump\t// out\n        /* \"contracts/NFTDAO_staking.sol\":831:1835  function stakeTokens(uint256 _amount) public {\r... */\n    tag_39:\n        /* \"contracts/NFTDAO_staking.sol\":905:906  0 */\n      0x00\n        /* \"contracts/NFTDAO_staking.sol\":895:902  _amount */\n      dup2\n        /* \"contracts/NFTDAO_staking.sol\":895:906  _amount > 0 */\n      gt\n        /* \"contracts/NFTDAO_staking.sol\":887:929  require(_amount > 0, \"amount cannot be 0\") */\n      tag_83\n      jumpi\n      mload(0x40)\n      0x08c379a000000000000000000000000000000000000000000000000000000000\n      dup2\n      mstore\n      0x04\n      add\n      tag_84\n      swap1\n      tag_85\n      jump\t// in\n    tag_84:\n      mload(0x40)\n      dup1\n      swap2\n      sub\n      swap1\n      revert\n    tag_83:\n        /* \"contracts/NFTDAO_staking.sol\":1001:1010  DappToken */\n      0x03\n      0x00\n      swap1\n      sload\n      swap1\n      0x0100\n      exp\n      swap1\n      div\n      0xffffffffffffffffffffffffffffffffffffffff\n      and\n        /* \"contracts/NFTDAO_staking.sol\":1001:1023  DappToken.transferFrom */\n      0xffffffffffffffffffffffffffffffffffffffff\n      and\n      0x23b872dd\n        /* \"contracts/NFTDAO_staking.sol\":1024:1034  msg.sender */\n      caller\n        /* \"contracts/NFTDAO_staking.sol\":1044:1048  this */\n      address\n        /* \"contracts/NFTDAO_staking.sol\":1051:1058  _amount */\n      dup5\n        /* \"contracts/NFTDAO_staking.sol\":1001:1059  DappToken.transferFrom(msg.sender, address(this), _amount) */\n      mload(0x40)\n      dup5\n      0xffffffff\n      and\n      0xe0\n      shl\n      dup2\n      mstore\n      0x04\n      add\n      tag_86\n      swap4\n      swap3\n      swap2\n      swap1\n      tag_87\n      jump\t// in\n    tag_86:\n      0x20\n      mload(0x40)\n      dup1\n      dup4\n      sub\n      dup2\n      0x00\n      dup8\n      dup1\n      extcodesize\n      iszero\n      dup1\n      iszero\n      tag_88\n      jumpi\n      0x00\n      dup1\n      revert\n    tag_88:\n      pop\n      gas\n      call\n      iszero\n      dup1\n      iszero\n      tag_90\n      jumpi\n      returndatasize\n      0x00\n      dup1\n      returndatacopy\n      revert(0x00, returndatasize)\n    tag_90:\n      pop\n      pop\n      pop\n      pop\n      mload(0x40)\n      returndatasize\n      not(0x1f)\n      0x1f\n      dup3\n      add\n      and\n      dup3\n      add\n      dup1\n      0x40\n      mstore\n      pop\n      dup2\n      add\n      swap1\n      tag_91\n      swap2\n      swap1\n      tag_79\n      jump\t// in\n    tag_91:\n      pop\n        /* \"contracts/NFTDAO_staking.sol\":1533:1540  _amount */\n      dup1\n        /* \"contracts/NFTDAO_staking.sol\":1504:1518  stakingBalance */\n      0x05\n        /* \"contracts/NFTDAO_staking.sol\":1504:1530  stakingBalance[msg.sender] */\n      0x00\n        /* \"contracts/NFTDAO_staking.sol\":1519:1529  msg.sender */\n      caller\n        /* \"contracts/NFTDAO_staking.sol\":1504:1530  stakingBalance[msg.sender] */\n      0xffffffffffffffffffffffffffffffffffffffff\n      and\n      0xffffffffffffffffffffffffffffffffffffffff\n      and\n      dup2\n      mstore\n      0x20\n      add\n      swap1\n      dup2\n      mstore\n      0x20\n      add\n      0x00\n      keccak256\n      sload\n        /* \"contracts/NFTDAO_staking.sol\":1504:1540  stakingBalance[msg.sender] + _amount */\n      tag_92\n      swap2\n      swap1\n      tag_93\n      jump\t// in\n    tag_92:\n        /* \"contracts/NFTDAO_staking.sol\":1475:1489  stakingBalance */\n      0x05\n        /* \"contracts/NFTDAO_staking.sol\":1475:1501  stakingBalance[msg.sender] */\n      0x00\n        /* \"contracts/NFTDAO_staking.sol\":1490:1500  msg.sender */\n      caller\n        /* \"contracts/NFTDAO_staking.sol\":1475:1501  stakingBalance[msg.sender] */\n      0xffffffffffffffffffffffffffffffffffffffff\n      and\n      0xffffffffffffffffffffffffffffffffffffffff\n      and\n      dup2\n      mstore\n      0x20\n      add\n      swap1\n      dup2\n      mstore\n      0x20\n      add\n      0x00\n      keccak256\n        /* \"contracts/NFTDAO_staking.sol\":1475:1540  stakingBalance[msg.sender] = stakingBalance[msg.sender] + _amount */\n      dup2\n      swap1\n      sstore\n      pop\n        /* \"contracts/NFTDAO_staking.sol\":1604:1613  hasStaked */\n      0x06\n        /* \"contracts/NFTDAO_staking.sol\":1604:1625  hasStaked[msg.sender] */\n      0x00\n        /* \"contracts/NFTDAO_staking.sol\":1614:1624  msg.sender */\n      caller\n        /* \"contracts/NFTDAO_staking.sol\":1604:1625  hasStaked[msg.sender] */\n      0xffffffffffffffffffffffffffffffffffffffff\n      and\n      0xffffffffffffffffffffffffffffffffffffffff\n      and\n      dup2\n      mstore\n      0x20\n      add\n      swap1\n      dup2\n      mstore\n      0x20\n      add\n      0x00\n      keccak256\n      0x00\n      swap1\n      sload\n      swap1\n      0x0100\n      exp\n      swap1\n      div\n      0xff\n      and\n        /* \"contracts/NFTDAO_staking.sol\":1599:1678  if (!hasStaked[msg.sender]) {\r... */\n      tag_94\n      jumpi\n        /* \"contracts/NFTDAO_staking.sol\":1642:1649  stakers */\n      0x04\n        /* \"contracts/NFTDAO_staking.sol\":1655:1665  msg.sender */\n      caller\n        /* \"contracts/NFTDAO_staking.sol\":1642:1666  stakers.push(msg.sender) */\n      swap1\n      dup1\n      0x01\n      dup2\n      sload\n      add\n      dup1\n      dup3\n      sstore\n      dup1\n      swap2\n      pop\n      pop\n      0x01\n      swap1\n      sub\n      swap1\n      0x00\n      mstore\n      keccak256(0x00, 0x20)\n      add\n      0x00\n      swap1\n      swap2\n      swap1\n      swap2\n      swap1\n      swap2\n      0x0100\n      exp\n      dup2\n      sload\n      dup2\n      0xffffffffffffffffffffffffffffffffffffffff\n      mul\n      not\n      and\n      swap1\n      dup4\n      0xffffffffffffffffffffffffffffffffffffffff\n      and\n      mul\n      or\n      swap1\n      sstore\n      pop\n        /* \"contracts/NFTDAO_staking.sol\":1599:1678  if (!hasStaked[msg.sender]) {\r... */\n    tag_94:\n        /* \"contracts/NFTDAO_staking.sol\":1784:1788  true */\n      0x01\n        /* \"contracts/NFTDAO_staking.sol\":1760:1769  isStaking */\n      0x07\n        /* \"contracts/NFTDAO_staking.sol\":1760:1781  isStaking[msg.sender] */\n      0x00\n        /* \"contracts/NFTDAO_staking.sol\":1770:1780  msg.sender */\n      caller\n        /* \"contracts/NFTDAO_staking.sol\":1760:1781  isStaking[msg.sender] */\n      0xffffffffffffffffffffffffffffffffffffffff\n      and\n      0xffffffffffffffffffffffffffffffffffffffff\n      and\n      dup2\n      mstore\n      0x20\n      add\n      swap1\n      dup2\n      mstore\n      0x20\n      add\n      0x00\n      keccak256\n      0x00\n        /* \"contracts/NFTDAO_staking.sol\":1760:1788  isStaking[msg.sender] = true */\n      0x0100\n      exp\n      dup2\n      sload\n      dup2\n      0xff\n      mul\n      not\n      and\n      swap1\n      dup4\n      iszero\n      iszero\n      mul\n      or\n      swap1\n      sstore\n      pop\n        /* \"contracts/NFTDAO_staking.sol\":1823:1827  true */\n      0x01\n        /* \"contracts/NFTDAO_staking.sol\":1799:1808  hasStaked */\n      0x06\n        /* \"contracts/NFTDAO_staking.sol\":1799:1820  hasStaked[msg.sender] */\n      0x00\n        /* \"contracts/NFTDAO_staking.sol\":1809:1819  msg.sender */\n      caller\n        /* \"contracts/NFTDAO_staking.sol\":1799:1820  hasStaked[msg.sender] */\n      0xffffffffffffffffffffffffffffffffffffffff\n      and\n      0xffffffffffffffffffffffffffffffffffffffff\n      and\n      dup2\n      mstore\n      0x20\n      add\n      swap1\n      dup2\n      mstore\n      0x20\n      add\n      0x00\n      keccak256\n      0x00\n        /* \"contracts/NFTDAO_staking.sol\":1799:1827  hasStaked[msg.sender] = true */\n      0x0100\n      exp\n      dup2\n      sload\n      dup2\n      0xff\n      mul\n      not\n      and\n      swap1\n      dup4\n      iszero\n      iszero\n      mul\n      or\n      swap1\n      sstore\n      pop\n        /* \"contracts/NFTDAO_staking.sol\":831:1835  function stakeTokens(uint256 _amount) public {\r... */\n      pop\n      jump\t// out\n        /* \"contracts/NFTDAO_staking.sol\":224:244  address public owner */\n    tag_41:\n      0x01\n      0x00\n      swap1\n      sload\n      swap1\n      0x0100\n      exp\n      swap1\n      div\n      0xffffffffffffffffffffffffffffffffffffffff\n      and\n      dup2\n      jump\t// out\n        /* \"contracts/NFTDAO_staking.sol\":1894:2194  function unstakeTokens() public {\r... */\n    tag_45:\n        /* \"contracts/NFTDAO_staking.sol\":1939:1954  uint256 balance */\n      0x00\n        /* \"contracts/NFTDAO_staking.sol\":1957:1971  stakingBalance */\n      0x05\n        /* \"contracts/NFTDAO_staking.sol\":1957:1983  stakingBalance[msg.sender] */\n      0x00\n        /* \"contracts/NFTDAO_staking.sol\":1972:1982  msg.sender */\n      caller\n        /* \"contracts/NFTDAO_staking.sol\":1957:1983  stakingBalance[msg.sender] */\n      0xffffffffffffffffffffffffffffffffffffffff\n      and\n      0xffffffffffffffffffffffffffffffffffffffff\n      and\n      dup2\n      mstore\n      0x20\n      add\n      swap1\n      dup2\n      mstore\n      0x20\n      add\n      0x00\n      keccak256\n      sload\n        /* \"contracts/NFTDAO_staking.sol\":1939:1983  uint256 balance = stakingBalance[msg.sender] */\n      swap1\n      pop\n        /* \"contracts/NFTDAO_staking.sol\":2016:2017  0 */\n      0x00\n        /* \"contracts/NFTDAO_staking.sol\":2006:2013  balance */\n      dup2\n        /* \"contracts/NFTDAO_staking.sol\":2006:2017  balance > 0 */\n      gt\n        /* \"contracts/NFTDAO_staking.sol\":1998:2049  require(balance > 0, \"staking balance cannot be 0\") */\n      tag_97\n      jumpi\n      mload(0x40)\n      0x08c379a000000000000000000000000000000000000000000000000000000000\n      dup2\n      mstore\n      0x04\n      add\n      tag_98\n      swap1\n      tag_99\n      jump\t// in\n    tag_98:\n      mload(0x40)\n      dup1\n      swap2\n      sub\n      swap1\n      revert\n    tag_97:\n        /* \"contracts/NFTDAO_staking.sol\":2064:2073  DappToken */\n      0x03\n      0x00\n      swap1\n      sload\n      swap1\n      0x0100\n      exp\n      swap1\n      div\n      0xffffffffffffffffffffffffffffffffffffffff\n      and\n        /* \"contracts/NFTDAO_staking.sol\":2064:2082  DappToken.transfer */\n      0xffffffffffffffffffffffffffffffffffffffff\n      and\n      0xa9059cbb\n        /* \"contracts/NFTDAO_staking.sol\":2083:2093  msg.sender */\n      caller\n        /* \"contracts/NFTDAO_staking.sol\":2095:2102  balance */\n      dup4\n        /* \"contracts/NFTDAO_staking.sol\":2064:2103  DappToken.transfer(msg.sender, balance) */\n      mload(0x40)\n      dup4\n      0xffffffff\n      and\n      0xe0\n      shl\n      dup2\n      mstore\n      0x04\n      add\n      tag_100\n      swap3\n      swap2\n      swap1\n      tag_74\n      jump\t// in\n    tag_100:\n      0x20\n      mload(0x40)\n      dup1\n      dup4\n      sub\n      dup2\n      0x00\n      dup8\n      dup1\n      extcodesize\n      iszero\n      dup1\n      iszero\n      tag_101\n      jumpi\n      0x00\n      dup1\n      revert\n    tag_101:\n      pop\n      gas\n      call\n      iszero\n      dup1\n      iszero\n      tag_103\n      jumpi\n      returndatasize\n      0x00\n      dup1\n      returndatacopy\n      revert(0x00, returndatasize)\n    tag_103:\n      pop\n      pop\n      pop\n      pop\n      mload(0x40)\n      returndatasize\n      not(0x1f)\n      0x1f\n      dup3\n      add\n      and\n      dup3\n      add\n      dup1\n      0x40\n      mstore\n      pop\n      dup2\n      add\n      swap1\n      tag_104\n      swap2\n      swap1\n      tag_79\n      jump\t// in\n    tag_104:\n      pop\n        /* \"contracts/NFTDAO_staking.sol\":2145:2146  0 */\n      0x00\n        /* \"contracts/NFTDAO_staking.sol\":2116:2130  stakingBalance */\n      0x05\n        /* \"contracts/NFTDAO_staking.sol\":2116:2142  stakingBalance[msg.sender] */\n      0x00\n        /* \"contracts/NFTDAO_staking.sol\":2131:2141  msg.sender */\n      caller\n        /* \"contracts/NFTDAO_staking.sol\":2116:2142  stakingBalance[msg.sender] */\n      0xffffffffffffffffffffffffffffffffffffffff\n      and\n      0xffffffffffffffffffffffffffffffffffffffff\n      and\n      dup2\n      mstore\n      0x20\n      add\n      swap1\n      dup2\n      mstore\n      0x20\n      add\n      0x00\n      keccak256\n        /* \"contracts/NFTDAO_staking.sol\":2116:2146  stakingBalance[msg.sender] = 0 */\n      dup2\n      swap1\n      sstore\n      pop\n        /* \"contracts/NFTDAO_staking.sol\":2181:2186  false */\n      0x00\n        /* \"contracts/NFTDAO_staking.sol\":2157:2166  isStaking */\n      0x07\n        /* \"contracts/NFTDAO_staking.sol\":2157:2178  isStaking[msg.sender] */\n      0x00\n        /* \"contracts/NFTDAO_staking.sol\":2167:2177  msg.sender */\n      caller\n        /* \"contracts/NFTDAO_staking.sol\":2157:2178  isStaking[msg.sender] */\n      0xffffffffffffffffffffffffffffffffffffffff\n      and\n      0xffffffffffffffffffffffffffffffffffffffff\n      and\n      dup2\n      mstore\n      0x20\n      add\n      swap1\n      dup2\n      mstore\n      0x20\n      add\n      0x00\n      keccak256\n      0x00\n        /* \"contracts/NFTDAO_staking.sol\":2157:2186  isStaking[msg.sender] = false */\n      0x0100\n      exp\n      dup2\n      sload\n      dup2\n      0xff\n      mul\n      not\n      and\n      swap1\n      dup4\n      iszero\n      iszero\n      mul\n      or\n      swap1\n      sstore\n      pop\n        /* \"contracts/NFTDAO_staking.sol\":1894:2194  function unstakeTokens() public {\r... */\n      pop\n      jump\t// out\n        /* \"contracts/NFTDAO_staking.sol\":430:471  mapping(address => bool) public hasStaked */\n    tag_48:\n      mstore(0x20, 0x06)\n      dup1\n      0x00\n      mstore\n      keccak256(0x00, 0x40)\n      0x00\n      swap2\n      pop\n      sload\n      swap1\n      0x0100\n      exp\n      swap1\n      div\n      0xff\n      and\n      dup2\n      jump\t// out\n        /* \"contracts/NFTDAO_staking.sol\":251:272  ERC20 public DAOToken */\n    tag_51:\n      0x02\n      0x00\n      swap1\n      sload\n      swap1\n      0x0100\n      exp\n      swap1\n      div\n      0xffffffffffffffffffffffffffffffffffffffff\n      and\n      dup2\n      jump\t// out\n        /* \"contracts/NFTDAO_staking.sol\":343:367  address[] public stakers */\n    tag_55:\n      0x04\n      dup2\n      dup2\n      sload\n      dup2\n      lt\n      tag_105\n      jumpi\n      0x00\n      dup1\n      revert\n    tag_105:\n      swap1\n      0x00\n      mstore\n      keccak256(0x00, 0x20)\n      add\n      0x00\n      swap2\n      pop\n      sload\n      swap1\n      0x0100\n      exp\n      swap1\n      div\n      0xffffffffffffffffffffffffffffffffffffffff\n      and\n      dup2\n      jump\t// out\n        /* \"#utility.yul\":7:146   */\n    tag_108:\n      0x00\n        /* \"#utility.yul\":91:97   */\n      dup2\n        /* \"#utility.yul\":78:98   */\n      calldataload\n        /* \"#utility.yul\":69:98   */\n      swap1\n      pop\n        /* \"#utility.yul\":107:140   */\n      tag_110\n        /* \"#utility.yul\":134:139   */\n      dup2\n        /* \"#utility.yul\":107:140   */\n      tag_111\n      jump\t// in\n    tag_110:\n        /* \"#utility.yul\":59:146   */\n      swap3\n      swap2\n      pop\n      pop\n      jump\t// out\n        /* \"#utility.yul\":152:289   */\n    tag_112:\n      0x00\n        /* \"#utility.yul\":237:243   */\n      dup2\n        /* \"#utility.yul\":231:244   */\n      mload\n        /* \"#utility.yul\":222:244   */\n      swap1\n      pop\n        /* \"#utility.yul\":253:283   */\n      tag_114\n        /* \"#utility.yul\":277:282   */\n      dup2\n        /* \"#utility.yul\":253:283   */\n      tag_115\n      jump\t// in\n    tag_114:\n        /* \"#utility.yul\":212:289   */\n      swap3\n      swap2\n      pop\n      pop\n      jump\t// out\n        /* \"#utility.yul\":295:434   */\n    tag_116:\n      0x00\n        /* \"#utility.yul\":379:385   */\n      dup2\n        /* \"#utility.yul\":366:386   */\n      calldataload\n        /* \"#utility.yul\":357:386   */\n      swap1\n      pop\n        /* \"#utility.yul\":395:428   */\n      tag_118\n        /* \"#utility.yul\":422:427   */\n      dup2\n        /* \"#utility.yul\":395:428   */\n      tag_119\n      jump\t// in\n    tag_118:\n        /* \"#utility.yul\":347:434   */\n      swap3\n      swap2\n      pop\n      pop\n      jump\t// out\n        /* \"#utility.yul\":440:702   */\n    tag_21:\n      0x00\n        /* \"#utility.yul\":548:550   */\n      0x20\n        /* \"#utility.yul\":536:545   */\n      dup3\n        /* \"#utility.yul\":527:534   */\n      dup5\n        /* \"#utility.yul\":523:546   */\n      sub\n        /* \"#utility.yul\":519:551   */\n      slt\n        /* \"#utility.yul\":516:518   */\n      iszero\n      tag_121\n      jumpi\n        /* \"#utility.yul\":564:565   */\n      0x00\n        /* \"#utility.yul\":561:562   */\n      dup1\n        /* \"#utility.yul\":554:566   */\n      revert\n        /* \"#utility.yul\":516:518   */\n    tag_121:\n        /* \"#utility.yul\":607:608   */\n      0x00\n        /* \"#utility.yul\":632:685   */\n      tag_122\n        /* \"#utility.yul\":677:684   */\n      dup5\n        /* \"#utility.yul\":668:674   */\n      dup3\n        /* \"#utility.yul\":657:666   */\n      dup6\n        /* \"#utility.yul\":653:675   */\n      add\n        /* \"#utility.yul\":632:685   */\n      tag_108\n      jump\t// in\n    tag_122:\n        /* \"#utility.yul\":622:685   */\n      swap2\n      pop\n        /* \"#utility.yul\":578:695   */\n      pop\n        /* \"#utility.yul\":506:702   */\n      swap3\n      swap2\n      pop\n      pop\n      jump\t// out\n        /* \"#utility.yul\":708:986   */\n    tag_79:\n      0x00\n        /* \"#utility.yul\":824:826   */\n      0x20\n        /* \"#utility.yul\":812:821   */\n      dup3\n        /* \"#utility.yul\":803:810   */\n      dup5\n        /* \"#utility.yul\":799:822   */\n      sub\n        /* \"#utility.yul\":795:827   */\n      slt\n        /* \"#utility.yul\":792:794   */\n      iszero\n      tag_124\n      jumpi\n        /* \"#utility.yul\":840:841   */\n      0x00\n        /* \"#utility.yul\":837:838   */\n      dup1\n        /* \"#utility.yul\":830:842   */\n      revert\n        /* \"#utility.yul\":792:794   */\n    tag_124:\n        /* \"#utility.yul\":883:884   */\n      0x00\n        /* \"#utility.yul\":908:969   */\n      tag_125\n        /* \"#utility.yul\":961:968   */\n      dup5\n        /* \"#utility.yul\":952:958   */\n      dup3\n        /* \"#utility.yul\":941:950   */\n      dup6\n        /* \"#utility.yul\":937:959   */\n      add\n        /* \"#utility.yul\":908:969   */\n      tag_112\n      jump\t// in\n    tag_125:\n        /* \"#utility.yul\":898:969   */\n      swap2\n      pop\n        /* \"#utility.yul\":854:979   */\n      pop\n        /* \"#utility.yul\":782:986   */\n      swap3\n      swap2\n      pop\n      pop\n      jump\t// out\n        /* \"#utility.yul\":992:1254   */\n    tag_38:\n      0x00\n        /* \"#utility.yul\":1100:1102   */\n      0x20\n        /* \"#utility.yul\":1088:1097   */\n      dup3\n        /* \"#utility.yul\":1079:1086   */\n      dup5\n        /* \"#utility.yul\":1075:1098   */\n      sub\n        /* \"#utility.yul\":1071:1103   */\n      slt\n        /* \"#utility.yul\":1068:1070   */\n      iszero\n      tag_127\n      jumpi\n        /* \"#utility.yul\":1116:1117   */\n      0x00\n        /* \"#utility.yul\":1113:1114   */\n      dup1\n        /* \"#utility.yul\":1106:1118   */\n      revert\n        /* \"#utility.yul\":1068:1070   */\n    tag_127:\n        /* \"#utility.yul\":1159:1160   */\n      0x00\n        /* \"#utility.yul\":1184:1237   */\n      tag_128\n        /* \"#utility.yul\":1229:1236   */\n      dup5\n        /* \"#utility.yul\":1220:1226   */\n      dup3\n        /* \"#utility.yul\":1209:1218   */\n      dup6\n        /* \"#utility.yul\":1205:1227   */\n      add\n        /* \"#utility.yul\":1184:1237   */\n      tag_116\n      jump\t// in\n    tag_128:\n        /* \"#utility.yul\":1174:1237   */\n      swap2\n      pop\n        /* \"#utility.yul\":1130:1247   */\n      pop\n        /* \"#utility.yul\":1058:1254   */\n      swap3\n      swap2\n      pop\n      pop\n      jump\t// out\n        /* \"#utility.yul\":1260:1378   */\n    tag_129:\n        /* \"#utility.yul\":1347:1371   */\n      tag_131\n        /* \"#utility.yul\":1365:1370   */\n      dup2\n        /* \"#utility.yul\":1347:1371   */\n      tag_132\n      jump\t// in\n    tag_131:\n        /* \"#utility.yul\":1342:1345   */\n      dup3\n        /* \"#utility.yul\":1335:1372   */\n      mstore\n        /* \"#utility.yul\":1325:1378   */\n      pop\n      pop\n      jump\t// out\n        /* \"#utility.yul\":1384:1493   */\n    tag_133:\n        /* \"#utility.yul\":1465:1486   */\n      tag_135\n        /* \"#utility.yul\":1480:1485   */\n      dup2\n        /* \"#utility.yul\":1465:1486   */\n      tag_136\n      jump\t// in\n    tag_135:\n        /* \"#utility.yul\":1460:1463   */\n      dup3\n        /* \"#utility.yul\":1453:1487   */\n      mstore\n        /* \"#utility.yul\":1443:1493   */\n      pop\n      pop\n      jump\t// out\n        /* \"#utility.yul\":1499:1656   */\n    tag_137:\n        /* \"#utility.yul\":1599:1649   */\n      tag_139\n        /* \"#utility.yul\":1643:1648   */\n      dup2\n        /* \"#utility.yul\":1599:1649   */\n      tag_140\n      jump\t// in\n    tag_139:\n        /* \"#utility.yul\":1594:1597   */\n      dup3\n        /* \"#utility.yul\":1587:1650   */\n      mstore\n        /* \"#utility.yul\":1577:1656   */\n      pop\n      pop\n      jump\t// out\n        /* \"#utility.yul\":1662:2026   */\n    tag_141:\n      0x00\n        /* \"#utility.yul\":1778:1817   */\n      tag_143\n        /* \"#utility.yul\":1811:1816   */\n      dup3\n        /* \"#utility.yul\":1778:1817   */\n      tag_144\n      jump\t// in\n    tag_143:\n        /* \"#utility.yul\":1833:1904   */\n      tag_145\n        /* \"#utility.yul\":1897:1903   */\n      dup2\n        /* \"#utility.yul\":1892:1895   */\n      dup6\n        /* \"#utility.yul\":1833:1904   */\n      tag_146\n      jump\t// in\n    tag_145:\n        /* \"#utility.yul\":1826:1904   */\n      swap4\n      pop\n        /* \"#utility.yul\":1913:1965   */\n      tag_147\n        /* \"#utility.yul\":1958:1964   */\n      dup2\n        /* \"#utility.yul\":1953:1956   */\n      dup6\n        /* \"#utility.yul\":1946:1950   */\n      0x20\n        /* \"#utility.yul\":1939:1944   */\n      dup7\n        /* \"#utility.yul\":1935:1951   */\n      add\n        /* \"#utility.yul\":1913:1965   */\n      tag_148\n      jump\t// in\n    tag_147:\n        /* \"#utility.yul\":1990:2019   */\n      tag_149\n        /* \"#utility.yul\":2012:2018   */\n      dup2\n        /* \"#utility.yul\":1990:2019   */\n      tag_150\n      jump\t// in\n    tag_149:\n        /* \"#utility.yul\":1985:1988   */\n      dup5\n        /* \"#utility.yul\":1981:2020   */\n      add\n        /* \"#utility.yul\":1974:2020   */\n      swap2\n      pop\n        /* \"#utility.yul\":1754:2026   */\n      pop\n      swap3\n      swap2\n      pop\n      pop\n      jump\t// out\n        /* \"#utility.yul\":2032:2354   */\n    tag_151:\n      0x00\n        /* \"#utility.yul\":2195:2262   */\n      tag_153\n        /* \"#utility.yul\":2259:2261   */\n      0x18\n        /* \"#utility.yul\":2254:2257   */\n      dup4\n        /* \"#utility.yul\":2195:2262   */\n      tag_146\n      jump\t// in\n    tag_153:\n        /* \"#utility.yul\":2188:2262   */\n      swap2\n      pop\n        /* \"#utility.yul\":2292:2318   */\n      0x63616c6c6572206d75737420626520746865206f776e65720000000000000000\n        /* \"#utility.yul\":2288:2289   */\n      0x00\n        /* \"#utility.yul\":2283:2286   */\n      dup4\n        /* \"#utility.yul\":2279:2290   */\n      add\n        /* \"#utility.yul\":2272:2319   */\n      mstore\n        /* \"#utility.yul\":2345:2347   */\n      0x20\n        /* \"#utility.yul\":2340:2343   */\n      dup3\n        /* \"#utility.yul\":2336:2348   */\n      add\n        /* \"#utility.yul\":2329:2348   */\n      swap1\n      pop\n        /* \"#utility.yul\":2178:2354   */\n      swap2\n      swap1\n      pop\n      jump\t// out\n        /* \"#utility.yul\":2360:2685   */\n    tag_154:\n      0x00\n        /* \"#utility.yul\":2523:2590   */\n      tag_156\n        /* \"#utility.yul\":2587:2589   */\n      0x1b\n        /* \"#utility.yul\":2582:2585   */\n      dup4\n        /* \"#utility.yul\":2523:2590   */\n      tag_146\n      jump\t// in\n    tag_156:\n        /* \"#utility.yul\":2516:2590   */\n      swap2\n      pop\n        /* \"#utility.yul\":2620:2649   */\n      0x7374616b696e672062616c616e63652063616e6e6f7420626520300000000000\n        /* \"#utility.yul\":2616:2617   */\n      0x00\n        /* \"#utility.yul\":2611:2614   */\n      dup4\n        /* \"#utility.yul\":2607:2618   */\n      add\n        /* \"#utility.yul\":2600:2650   */\n      mstore\n        /* \"#utility.yul\":2676:2678   */\n      0x20\n        /* \"#utility.yul\":2671:2674   */\n      dup3\n        /* \"#utility.yul\":2667:2679   */\n      add\n        /* \"#utility.yul\":2660:2679   */\n      swap1\n      pop\n        /* \"#utility.yul\":2506:2685   */\n      swap2\n      swap1\n      pop\n      jump\t// out\n        /* \"#utility.yul\":2691:3007   */\n    tag_157:\n      0x00\n        /* \"#utility.yul\":2854:2921   */\n      tag_159\n        /* \"#utility.yul\":2918:2920   */\n      0x12\n        /* \"#utility.yul\":2913:2916   */\n      dup4\n        /* \"#utility.yul\":2854:2921   */\n      tag_146\n      jump\t// in\n    tag_159:\n        /* \"#utility.yul\":2847:2921   */\n      swap2\n      pop\n        /* \"#utility.yul\":2951:2971   */\n      0x616d6f756e742063616e6e6f7420626520300000000000000000000000000000\n        /* \"#utility.yul\":2947:2948   */\n      0x00\n        /* \"#utility.yul\":2942:2945   */\n      dup4\n        /* \"#utility.yul\":2938:2949   */\n      add\n        /* \"#utility.yul\":2931:2972   */\n      mstore\n        /* \"#utility.yul\":2998:3000   */\n      0x20\n        /* \"#utility.yul\":2993:2996   */\n      dup3\n        /* \"#utility.yul\":2989:3001   */\n      add\n        /* \"#utility.yul\":2982:3001   */\n      swap1\n      pop\n        /* \"#utility.yul\":2837:3007   */\n      swap2\n      swap1\n      pop\n      jump\t// out\n        /* \"#utility.yul\":3013:3131   */\n    tag_160:\n        /* \"#utility.yul\":3100:3124   */\n      tag_162\n        /* \"#utility.yul\":3118:3123   */\n      dup2\n        /* \"#utility.yul\":3100:3124   */\n      tag_163\n      jump\t// in\n    tag_162:\n        /* \"#utility.yul\":3095:3098   */\n      dup3\n        /* \"#utility.yul\":3088:3125   */\n      mstore\n        /* \"#utility.yul\":3078:3131   */\n      pop\n      pop\n      jump\t// out\n        /* \"#utility.yul\":3137:3359   */\n    tag_43:\n      0x00\n        /* \"#utility.yul\":3268:3270   */\n      0x20\n        /* \"#utility.yul\":3257:3266   */\n      dup3\n        /* \"#utility.yul\":3253:3271   */\n      add\n        /* \"#utility.yul\":3245:3271   */\n      swap1\n      pop\n        /* \"#utility.yul\":3281:3352   */\n      tag_165\n        /* \"#utility.yul\":3349:3350   */\n      0x00\n        /* \"#utility.yul\":3338:3347   */\n      dup4\n        /* \"#utility.yul\":3334:3351   */\n      add\n        /* \"#utility.yul\":3325:3331   */\n      dup5\n        /* \"#utility.yul\":3281:3352   */\n      tag_129\n      jump\t// in\n    tag_165:\n        /* \"#utility.yul\":3235:3359   */\n      swap3\n      swap2\n      pop\n      pop\n      jump\t// out\n        /* \"#utility.yul\":3365:3807   */\n    tag_87:\n      0x00\n        /* \"#utility.yul\":3552:3554   */\n      0x60\n        /* \"#utility.yul\":3541:3550   */\n      dup3\n        /* \"#utility.yul\":3537:3555   */\n      add\n        /* \"#utility.yul\":3529:3555   */\n      swap1\n      pop\n        /* \"#utility.yul\":3565:3636   */\n      tag_167\n        /* \"#utility.yul\":3633:3634   */\n      0x00\n        /* \"#utility.yul\":3622:3631   */\n      dup4\n        /* \"#utility.yul\":3618:3635   */\n      add\n        /* \"#utility.yul\":3609:3615   */\n      dup7\n        /* \"#utility.yul\":3565:3636   */\n      tag_129\n      jump\t// in\n    tag_167:\n        /* \"#utility.yul\":3646:3718   */\n      tag_168\n        /* \"#utility.yul\":3714:3716   */\n      0x20\n        /* \"#utility.yul\":3703:3712   */\n      dup4\n        /* \"#utility.yul\":3699:3717   */\n      add\n        /* \"#utility.yul\":3690:3696   */\n      dup6\n        /* \"#utility.yul\":3646:3718   */\n      tag_129\n      jump\t// in\n    tag_168:\n        /* \"#utility.yul\":3728:3800   */\n      tag_169\n        /* \"#utility.yul\":3796:3798   */\n      0x40\n        /* \"#utility.yul\":3785:3794   */\n      dup4\n        /* \"#utility.yul\":3781:3799   */\n      add\n        /* \"#utility.yul\":3772:3778   */\n      dup5\n        /* \"#utility.yul\":3728:3800   */\n      tag_160\n      jump\t// in\n    tag_169:\n        /* \"#utility.yul\":3519:3807   */\n      swap5\n      swap4\n      pop\n      pop\n      pop\n      pop\n      jump\t// out\n        /* \"#utility.yul\":3813:4145   */\n    tag_74:\n      0x00\n        /* \"#utility.yul\":3972:3974   */\n      0x40\n        /* \"#utility.yul\":3961:3970   */\n      dup3\n        /* \"#utility.yul\":3957:3975   */\n      add\n        /* \"#utility.yul\":3949:3975   */\n      swap1\n      pop\n        /* \"#utility.yul\":3985:4056   */\n      tag_171\n        /* \"#utility.yul\":4053:4054   */\n      0x00\n        /* \"#utility.yul\":4042:4051   */\n      dup4\n        /* \"#utility.yul\":4038:4055   */\n      add\n        /* \"#utility.yul\":4029:4035   */\n      dup6\n        /* \"#utility.yul\":3985:4056   */\n      tag_129\n      jump\t// in\n    tag_171:\n        /* \"#utility.yul\":4066:4138   */\n      tag_172\n        /* \"#utility.yul\":4134:4136   */\n      0x20\n        /* \"#utility.yul\":4123:4132   */\n      dup4\n        /* \"#utility.yul\":4119:4137   */\n      add\n        /* \"#utility.yul\":4110:4116   */\n      dup5\n        /* \"#utility.yul\":4066:4138   */\n      tag_160\n      jump\t// in\n    tag_172:\n        /* \"#utility.yul\":3939:4145   */\n      swap4\n      swap3\n      pop\n      pop\n      pop\n      jump\t// out\n        /* \"#utility.yul\":4151:4361   */\n    tag_31:\n      0x00\n        /* \"#utility.yul\":4276:4278   */\n      0x20\n        /* \"#utility.yul\":4265:4274   */\n      dup3\n        /* \"#utility.yul\":4261:4279   */\n      add\n        /* \"#utility.yul\":4253:4279   */\n      swap1\n      pop\n        /* \"#utility.yul\":4289:4354   */\n      tag_174\n        /* \"#utility.yul\":4351:4352   */\n      0x00\n        /* \"#utility.yul\":4340:4349   */\n      dup4\n        /* \"#utility.yul\":4336:4353   */\n      add\n        /* \"#utility.yul\":4327:4333   */\n      dup5\n        /* \"#utility.yul\":4289:4354   */\n      tag_133\n      jump\t// in\n    tag_174:\n        /* \"#utility.yul\":4243:4361   */\n      swap3\n      swap2\n      pop\n      pop\n      jump\t// out\n        /* \"#utility.yul\":4367:4615   */\n    tag_35:\n      0x00\n        /* \"#utility.yul\":4511:4513   */\n      0x20\n        /* \"#utility.yul\":4500:4509   */\n      dup3\n        /* \"#utility.yul\":4496:4514   */\n      add\n        /* \"#utility.yul\":4488:4514   */\n      swap1\n      pop\n        /* \"#utility.yul\":4524:4608   */\n      tag_176\n        /* \"#utility.yul\":4605:4606   */\n      0x00\n        /* \"#utility.yul\":4594:4603   */\n      dup4\n        /* \"#utility.yul\":4590:4607   */\n      add\n        /* \"#utility.yul\":4581:4587   */\n      dup5\n        /* \"#utility.yul\":4524:4608   */\n      tag_137\n      jump\t// in\n    tag_176:\n        /* \"#utility.yul\":4478:4615   */\n      swap3\n      swap2\n      pop\n      pop\n      jump\t// out\n        /* \"#utility.yul\":4621:4934   */\n    tag_18:\n      0x00\n        /* \"#utility.yul\":4772:4774   */\n      0x20\n        /* \"#utility.yul\":4761:4770   */\n      dup3\n        /* \"#utility.yul\":4757:4775   */\n      add\n        /* \"#utility.yul\":4749:4775   */\n      swap1\n      pop\n        /* \"#utility.yul\":4821:4830   */\n      dup2\n        /* \"#utility.yul\":4815:4819   */\n      dup2\n        /* \"#utility.yul\":4811:4831   */\n      sub\n        /* \"#utility.yul\":4807:4808   */\n      0x00\n        /* \"#utility.yul\":4796:4805   */\n      dup4\n        /* \"#utility.yul\":4792:4809   */\n      add\n        /* \"#utility.yul\":4785:4832   */\n      mstore\n        /* \"#utility.yul\":4849:4927   */\n      tag_178\n        /* \"#utility.yul\":4922:4926   */\n      dup2\n        /* \"#utility.yul\":4913:4919   */\n      dup5\n        /* \"#utility.yul\":4849:4927   */\n      tag_141\n      jump\t// in\n    tag_178:\n        /* \"#utility.yul\":4841:4927   */\n      swap1\n      pop\n        /* \"#utility.yul\":4739:4934   */\n      swap3\n      swap2\n      pop\n      pop\n      jump\t// out\n        /* \"#utility.yul\":4940:5359   */\n    tag_66:\n      0x00\n        /* \"#utility.yul\":5144:5146   */\n      0x20\n        /* \"#utility.yul\":5133:5142   */\n      dup3\n        /* \"#utility.yul\":5129:5147   */\n      add\n        /* \"#utility.yul\":5121:5147   */\n      swap1\n      pop\n        /* \"#utility.yul\":5193:5202   */\n      dup2\n        /* \"#utility.yul\":5187:5191   */\n      dup2\n        /* \"#utility.yul\":5183:5203   */\n      sub\n        /* \"#utility.yul\":5179:5180   */\n      0x00\n        /* \"#utility.yul\":5168:5177   */\n      dup4\n        /* \"#utility.yul\":5164:5181   */\n      add\n        /* \"#utility.yul\":5157:5204   */\n      mstore\n        /* \"#utility.yul\":5221:5352   */\n      tag_180\n        /* \"#utility.yul\":5347:5351   */\n      dup2\n        /* \"#utility.yul\":5221:5352   */\n      tag_151\n      jump\t// in\n    tag_180:\n        /* \"#utility.yul\":5213:5352   */\n      swap1\n      pop\n        /* \"#utility.yul\":5111:5359   */\n      swap2\n      swap1\n      pop\n      jump\t// out\n        /* \"#utility.yul\":5365:5784   */\n    tag_99:\n      0x00\n        /* \"#utility.yul\":5569:5571   */\n      0x20\n        /* \"#utility.yul\":5558:5567   */\n      dup3\n        /* \"#utility.yul\":5554:5572   */\n      add\n        /* \"#utility.yul\":5546:5572   */\n      swap1\n      pop\n        /* \"#utility.yul\":5618:5627   */\n      dup2\n        /* \"#utility.yul\":5612:5616   */\n      dup2\n        /* \"#utility.yul\":5608:5628   */\n      sub\n        /* \"#utility.yul\":5604:5605   */\n      0x00\n        /* \"#utility.yul\":5593:5602   */\n      dup4\n        /* \"#utility.yul\":5589:5606   */\n      add\n        /* \"#utility.yul\":5582:5629   */\n      mstore\n        /* \"#utility.yul\":5646:5777   */\n      tag_182\n        /* \"#utility.yul\":5772:5776   */\n      dup2\n        /* \"#utility.yul\":5646:5777   */\n      tag_154\n      jump\t// in\n    tag_182:\n        /* \"#utility.yul\":5638:5777   */\n      swap1\n      pop\n        /* \"#utility.yul\":5536:5784   */\n      swap2\n      swap1\n      pop\n      jump\t// out\n        /* \"#utility.yul\":5790:6209   */\n    tag_85:\n      0x00\n        /* \"#utility.yul\":5994:5996   */\n      0x20\n        /* \"#utility.yul\":5983:5992   */\n      dup3\n        /* \"#utility.yul\":5979:5997   */\n      add\n        /* \"#utility.yul\":5971:5997   */\n      swap1\n      pop\n        /* \"#utility.yul\":6043:6052   */\n      dup2\n        /* \"#utility.yul\":6037:6041   */\n      dup2\n        /* \"#utility.yul\":6033:6053   */\n      sub\n        /* \"#utility.yul\":6029:6030   */\n      0x00\n        /* \"#utility.yul\":6018:6027   */\n      dup4\n        /* \"#utility.yul\":6014:6031   */\n      add\n        /* \"#utility.yul\":6007:6054   */\n      mstore\n        /* \"#utility.yul\":6071:6202   */\n      tag_184\n        /* \"#utility.yul\":6197:6201   */\n      dup2\n        /* \"#utility.yul\":6071:6202   */\n      tag_157\n      jump\t// in\n    tag_184:\n        /* \"#utility.yul\":6063:6202   */\n      swap1\n      pop\n        /* \"#utility.yul\":5961:6209   */\n      swap2\n      swap1\n      pop\n      jump\t// out\n        /* \"#utility.yul\":6215:6437   */\n    tag_24:\n      0x00\n        /* \"#utility.yul\":6346:6348   */\n      0x20\n        /* \"#utility.yul\":6335:6344   */\n      dup3\n        /* \"#utility.yul\":6331:6349   */\n      add\n        /* \"#utility.yul\":6323:6349   */\n      swap1\n      pop\n        /* \"#utility.yul\":6359:6430   */\n      tag_186\n        /* \"#utility.yul\":6427:6428   */\n      0x00\n        /* \"#utility.yul\":6416:6425   */\n      dup4\n        /* \"#utility.yul\":6412:6429   */\n      add\n        /* \"#utility.yul\":6403:6409   */\n      dup5\n        /* \"#utility.yul\":6359:6430   */\n      tag_160\n      jump\t// in\n    tag_186:\n        /* \"#utility.yul\":6313:6437   */\n      swap3\n      swap2\n      pop\n      pop\n      jump\t// out\n        /* \"#utility.yul\":6443:6542   */\n    tag_144:\n      0x00\n        /* \"#utility.yul\":6529:6534   */\n      dup2\n        /* \"#utility.yul\":6523:6535   */\n      mload\n        /* \"#utility.yul\":6513:6535   */\n      swap1\n      pop\n        /* \"#utility.yul\":6502:6542   */\n      swap2\n      swap1\n      pop\n      jump\t// out\n        /* \"#utility.yul\":6548:6717   */\n    tag_146:\n      0x00\n        /* \"#utility.yul\":6666:6672   */\n      dup3\n        /* \"#utility.yul\":6661:6664   */\n      dup3\n        /* \"#utility.yul\":6654:6673   */\n      mstore\n        /* \"#utility.yul\":6706:6710   */\n      0x20\n        /* \"#utility.yul\":6701:6704   */\n      dup3\n        /* \"#utility.yul\":6697:6711   */\n      add\n        /* \"#utility.yul\":6682:6711   */\n      swap1\n      pop\n        /* \"#utility.yul\":6644:6717   */\n      swap3\n      swap2\n      pop\n      pop\n      jump\t// out\n        /* \"#utility.yul\":6723:7028   */\n    tag_93:\n      0x00\n        /* \"#utility.yul\":6782:6802   */\n      tag_190\n        /* \"#utility.yul\":6800:6801   */\n      dup3\n        /* \"#utility.yul\":6782:6802   */\n      tag_163\n      jump\t// in\n    tag_190:\n        /* \"#utility.yul\":6777:6802   */\n      swap2\n      pop\n        /* \"#utility.yul\":6816:6836   */\n      tag_191\n        /* \"#utility.yul\":6834:6835   */\n      dup4\n        /* \"#utility.yul\":6816:6836   */\n      tag_163\n      jump\t// in\n    tag_191:\n        /* \"#utility.yul\":6811:6836   */\n      swap3\n      pop\n        /* \"#utility.yul\":6970:6971   */\n      dup3\n        /* \"#utility.yul\":6902:6968   */\n      0xffffffffffffffffffffffffffffffffffffffffffffffffffffffffffffffff\n        /* \"#utility.yul\":6898:6972   */\n      sub\n        /* \"#utility.yul\":6895:6896   */\n      dup3\n        /* \"#utility.yul\":6892:6973   */\n      gt\n        /* \"#utility.yul\":6889:6891   */\n      iszero\n      tag_192\n      jumpi\n        /* \"#utility.yul\":6976:6994   */\n      tag_193\n      tag_194\n      jump\t// in\n    tag_193:\n        /* \"#utility.yul\":6889:6891   */\n    tag_192:\n        /* \"#utility.yul\":7020:7021   */\n      dup3\n        /* \"#utility.yul\":7017:7018   */\n      dup3\n        /* \"#utility.yul\":7013:7022   */\n      add\n        /* \"#utility.yul\":7006:7022   */\n      swap1\n      pop\n        /* \"#utility.yul\":6767:7028   */\n      swap3\n      swap2\n      pop\n      pop\n      jump\t// out\n        /* \"#utility.yul\":7034:7130   */\n    tag_132:\n      0x00\n        /* \"#utility.yul\":7100:7124   */\n      tag_196\n        /* \"#utility.yul\":7118:7123   */\n      dup3\n        /* \"#utility.yul\":7100:7124   */\n      tag_197\n      jump\t// in\n    tag_196:\n        /* \"#utility.yul\":7089:7124   */\n      swap1\n      pop\n        /* \"#utility.yul\":7079:7130   */\n      swap2\n      swap1\n      pop\n      jump\t// out\n        /* \"#utility.yul\":7136:7226   */\n    tag_136:\n      0x00\n        /* \"#utility.yul\":7213:7218   */\n      dup2\n        /* \"#utility.yul\":7206:7219   */\n      iszero\n        /* \"#utility.yul\":7199:7220   */\n      iszero\n        /* \"#utility.yul\":7188:7220   */\n      swap1\n      pop\n        /* \"#utility.yul\":7178:7226   */\n      swap2\n      swap1\n      pop\n      jump\t// out\n        /* \"#utility.yul\":7232:7358   */\n    tag_197:\n      0x00\n        /* \"#utility.yul\":7309:7351   */\n      0xffffffffffffffffffffffffffffffffffffffff\n        /* \"#utility.yul\":7302:7307   */\n      dup3\n        /* \"#utility.yul\":7298:7352   */\n      and\n        /* \"#utility.yul\":7287:7352   */\n      swap1\n      pop\n        /* \"#utility.yul\":7277:7358   */\n      swap2\n      swap1\n      pop\n      jump\t// out\n        /* \"#utility.yul\":7364:7441   */\n    tag_163:\n      0x00\n        /* \"#utility.yul\":7430:7435   */\n      dup2\n        /* \"#utility.yul\":7419:7435   */\n      swap1\n      pop\n        /* \"#utility.yul\":7409:7441   */\n      swap2\n      swap1\n      pop\n      jump\t// out\n        /* \"#utility.yul\":7447:7599   */\n    tag_140:\n      0x00\n        /* \"#utility.yul\":7543:7593   */\n      tag_202\n        /* \"#utility.yul\":7587:7592   */\n      dup3\n        /* \"#utility.yul\":7543:7593   */\n      tag_203\n      jump\t// in\n    tag_202:\n        /* \"#utility.yul\":7530:7593   */\n      swap1\n      pop\n        /* \"#utility.yul\":7520:7599   */\n      swap2\n      swap1\n      pop\n      jump\t// out\n        /* \"#utility.yul\":7605:7731   */\n    tag_203:\n      0x00\n        /* \"#utility.yul\":7701:7725   */\n      tag_205\n        /* \"#utility.yul\":7719:7724   */\n      dup3\n        /* \"#utility.yul\":7701:7725   */\n      tag_197\n      jump\t// in\n    tag_205:\n        /* \"#utility.yul\":7688:7725   */\n      swap1\n      pop\n        /* \"#utility.yul\":7678:7731   */\n      swap2\n      swap1\n      pop\n      jump\t// out\n        /* \"#utility.yul\":7737:8044   */\n    tag_148:\n        /* \"#utility.yul\":7805:7806   */\n      0x00\n        /* \"#utility.yul\":7815:7928   */\n    tag_207:\n        /* \"#utility.yul\":7829:7835   */\n      dup4\n        /* \"#utility.yul\":7826:7827   */\n      dup2\n        /* \"#utility.yul\":7823:7836   */\n      lt\n        /* \"#utility.yul\":7815:7928   */\n      iszero\n      tag_209\n      jumpi\n        /* \"#utility.yul\":7914:7915   */\n      dup1\n        /* \"#utility.yul\":7909:7912   */\n      dup3\n        /* \"#utility.yul\":7905:7916   */\n      add\n        /* \"#utility.yul\":7899:7917   */\n      mload\n        /* \"#utility.yul\":7895:7896   */\n      dup2\n        /* \"#utility.yul\":7890:7893   */\n      dup5\n        /* \"#utility.yul\":7886:7897   */\n      add\n        /* \"#utility.yul\":7879:7918   */\n      mstore\n        /* \"#utility.yul\":7851:7853   */\n      0x20\n        /* \"#utility.yul\":7848:7849   */\n      dup2\n        /* \"#utility.yul\":7844:7854   */\n      add\n        /* \"#utility.yul\":7839:7854   */\n      swap1\n      pop\n        /* \"#utility.yul\":7815:7928   */\n      jump(tag_207)\n    tag_209:\n        /* \"#utility.yul\":7946:7952   */\n      dup4\n        /* \"#utility.yul\":7943:7944   */\n      dup2\n        /* \"#utility.yul\":7940:7953   */\n      gt\n        /* \"#utility.yul\":7937:7939   */\n      iszero\n      tag_210\n      jumpi\n        /* \"#utility.yul\":8026:8027   */\n      0x00\n        /* \"#utility.yul\":8017:8023   */\n      dup5\n        /* \"#utility.yul\":8012:8015   */\n      dup5\n        /* \"#utility.yul\":8008:8024   */\n      add\n        /* \"#utility.yul\":8001:8028   */\n      mstore\n        /* \"#utility.yul\":7937:7939   */\n    tag_210:\n        /* \"#utility.yul\":7786:8044   */\n      pop\n      pop\n      pop\n      pop\n      jump\t// out\n        /* \"#utility.yul\":8050:8370   */\n    tag_58:\n      0x00\n        /* \"#utility.yul\":8131:8132   */\n      0x02\n        /* \"#utility.yul\":8125:8129   */\n      dup3\n        /* \"#utility.yul\":8121:8133   */\n      div\n        /* \"#utility.yul\":8111:8133   */\n      swap1\n      pop\n        /* \"#utility.yul\":8178:8179   */\n      0x01\n        /* \"#utility.yul\":8172:8176   */\n      dup3\n        /* \"#utility.yul\":8168:8180   */\n      and\n        /* \"#utility.yul\":8199:8217   */\n      dup1\n        /* \"#utility.yul\":8189:8191   */\n      tag_212\n      jumpi\n        /* \"#utility.yul\":8255:8259   */\n      0x7f\n        /* \"#utility.yul\":8247:8253   */\n      dup3\n        /* \"#utility.yul\":8243:8260   */\n      and\n        /* \"#utility.yul\":8233:8260   */\n      swap2\n      pop\n        /* \"#utility.yul\":8189:8191   */\n    tag_212:\n        /* \"#utility.yul\":8317:8319   */\n      0x20\n        /* \"#utility.yul\":8309:8315   */\n      dup3\n        /* \"#utility.yul\":8306:8320   */\n      lt\n        /* \"#utility.yul\":8286:8304   */\n      dup2\n        /* \"#utility.yul\":8283:8321   */\n      eq\n        /* \"#utility.yul\":8280:8282   */\n      iszero\n      tag_213\n      jumpi\n        /* \"#utility.yul\":8336:8354   */\n      tag_214\n      tag_215\n      jump\t// in\n    tag_214:\n        /* \"#utility.yul\":8280:8282   */\n    tag_213:\n        /* \"#utility.yul\":8101:8370   */\n      pop\n      swap2\n      swap1\n      pop\n      jump\t// out\n        /* \"#utility.yul\":8376:8609   */\n    tag_81:\n      0x00\n        /* \"#utility.yul\":8438:8462   */\n      tag_217\n        /* \"#utility.yul\":8456:8461   */\n      dup3\n        /* \"#utility.yul\":8438:8462   */\n      tag_163\n      jump\t// in\n    tag_217:\n        /* \"#utility.yul\":8429:8462   */\n      swap2\n      pop\n        /* \"#utility.yul\":8484:8550   */\n      0xffffffffffffffffffffffffffffffffffffffffffffffffffffffffffffffff\n        /* \"#utility.yul\":8477:8482   */\n      dup3\n        /* \"#utility.yul\":8474:8551   */\n      eq\n        /* \"#utility.yul\":8471:8473   */\n      iszero\n      tag_218\n      jumpi\n        /* \"#utility.yul\":8554:8572   */\n      tag_219\n      tag_194\n      jump\t// in\n    tag_219:\n        /* \"#utility.yul\":8471:8473   */\n    tag_218:\n        /* \"#utility.yul\":8601:8602   */\n      0x01\n        /* \"#utility.yul\":8594:8599   */\n      dup3\n        /* \"#utility.yul\":8590:8603   */\n      add\n        /* \"#utility.yul\":8583:8603   */\n      swap1\n      pop\n        /* \"#utility.yul\":8419:8609   */\n      swap2\n      swap1\n      pop\n      jump\t// out\n        /* \"#utility.yul\":8615:8795   */\n    tag_194:\n        /* \"#utility.yul\":8663:8740   */\n      0x4e487b7100000000000000000000000000000000000000000000000000000000\n        /* \"#utility.yul\":8660:8661   */\n      0x00\n        /* \"#utility.yul\":8653:8741   */\n      mstore\n        /* \"#utility.yul\":8760:8764   */\n      0x11\n        /* \"#utility.yul\":8757:8758   */\n      0x04\n        /* \"#utility.yul\":8750:8765   */\n      mstore\n        /* \"#utility.yul\":8784:8788   */\n      0x24\n        /* \"#utility.yul\":8781:8782   */\n      0x00\n        /* \"#utility.yul\":8774:8789   */\n      revert\n        /* \"#utility.yul\":8801:8981   */\n    tag_215:\n        /* \"#utility.yul\":8849:8926   */\n      0x4e487b7100000000000000000000000000000000000000000000000000000000\n        /* \"#utility.yul\":8846:8847   */\n      0x00\n        /* \"#utility.yul\":8839:8927   */\n      mstore\n        /* \"#utility.yul\":8946:8950   */\n      0x22\n        /* \"#utility.yul\":8943:8944   */\n      0x04\n        /* \"#utility.yul\":8936:8951   */\n      mstore\n        /* \"#utility.yul\":8970:8974   */\n      0x24\n        /* \"#utility.yul\":8967:8968   */\n      0x00\n        /* \"#utility.yul\":8960:8975   */\n      revert\n        /* \"#utility.yul\":8987:9089   */\n    tag_150:\n      0x00\n        /* \"#utility.yul\":9079:9081   */\n      0x1f\n        /* \"#utility.yul\":9075:9082   */\n      not\n        /* \"#utility.yul\":9070:9072   */\n      0x1f\n        /* \"#utility.yul\":9063:9068   */\n      dup4\n        /* \"#utility.yul\":9059:9073   */\n      add\n        /* \"#utility.yul\":9055:9083   */\n      and\n        /* \"#utility.yul\":9045:9083   */\n      swap1\n      pop\n        /* \"#utility.yul\":9035:9089   */\n      swap2\n      swap1\n      pop\n      jump\t// out\n        /* \"#utility.yul\":9095:9217   */\n    tag_111:\n        /* \"#utility.yul\":9168:9192   */\n      tag_224\n        /* \"#utility.yul\":9186:9191   */\n      dup2\n        /* \"#utility.yul\":9168:9192   */\n      tag_132\n      jump\t// in\n    tag_224:\n        /* \"#utility.yul\":9161:9166   */\n      dup2\n        /* \"#utility.yul\":9158:9193   */\n      eq\n        /* \"#utility.yul\":9148:9150   */\n      tag_225\n      jumpi\n        /* \"#utility.yul\":9207:9208   */\n      0x00\n        /* \"#utility.yul\":9204:9205   */\n      dup1\n        /* \"#utility.yul\":9197:9209   */\n      revert\n        /* \"#utility.yul\":9148:9150   */\n    tag_225:\n        /* \"#utility.yul\":9138:9217   */\n      pop\n      jump\t// out\n        /* \"#utility.yul\":9223:9339   */\n    tag_115:\n        /* \"#utility.yul\":9293:9314   */\n      tag_227\n        /* \"#utility.yul\":9308:9313   */\n      dup2\n        /* \"#utility.yul\":9293:9314   */\n      tag_136\n      jump\t// in\n    tag_227:\n        /* \"#utility.yul\":9286:9291   */\n      dup2\n        /* \"#utility.yul\":9283:9315   */\n      eq\n        /* \"#utility.yul\":9273:9275   */\n      tag_228\n      jumpi\n        /* \"#utility.yul\":9329:9330   */\n      0x00\n        /* \"#utility.yul\":9326:9327   */\n      dup1\n        /* \"#utility.yul\":9319:9331   */\n      revert\n        /* \"#utility.yul\":9273:9275   */\n    tag_228:\n        /* \"#utility.yul\":9263:9339   */\n      pop\n      jump\t// out\n        /* \"#utility.yul\":9345:9467   */\n    tag_119:\n        /* \"#utility.yul\":9418:9442   */\n      tag_230\n        /* \"#utility.yul\":9436:9441   */\n      dup2\n        /* \"#utility.yul\":9418:9442   */\n      tag_163\n      jump\t// in\n    tag_230:\n        /* \"#utility.yul\":9411:9416   */\n      dup2\n        /* \"#utility.yul\":9408:9443   */\n      eq\n        /* \"#utility.yul\":9398:9400   */\n      tag_231\n      jumpi\n        /* \"#utility.yul\":9457:9458   */\n      0x00\n        /* \"#utility.yul\":9454:9455   */\n      dup1\n        /* \"#utility.yul\":9447:9459   */\n      revert\n        /* \"#utility.yul\":9398:9400   */\n    tag_231:\n        /* \"#utility.yul\":9388:9467   */\n      pop\n      jump\t// out\n\n    auxdata: 0xa2646970667358221220f3cb4c0477a414f9aad752ad3bc068a1220193212131e3b04314cb288449da1f64736f6c63430008000033\n}\n",
				"bytecode": {
					"linkReferences": {},
					"object": "60806040526040518060400160405280601181526020017f4e465444414f20546f6b656e204661726d000000000000000000000000000000815250600090805190602001906200005192919062000150565b503480156200005f57600080fd5b506040516200137038038062001370833981810160405281019062000085919062000217565b81600260006101000a81548173ffffffffffffffffffffffffffffffffffffffff021916908373ffffffffffffffffffffffffffffffffffffffff16021790555080600360006101000a81548173ffffffffffffffffffffffffffffffffffffffff021916908373ffffffffffffffffffffffffffffffffffffffff16021790555033600160006101000a81548173ffffffffffffffffffffffffffffffffffffffff021916908373ffffffffffffffffffffffffffffffffffffffff16021790555050506200031f565b8280546200015e90620002a0565b90600052602060002090601f016020900481019282620001825760008555620001ce565b82601f106200019d57805160ff1916838001178555620001ce565b82800160010185558215620001ce579182015b82811115620001cd578251825591602001919060010190620001b0565b5b509050620001dd9190620001e1565b5090565b5b80821115620001fc576000816000905550600101620001e2565b5090565b600081519050620002118162000305565b92915050565b600080604083850312156200022b57600080fd5b60006200023b8582860162000200565b92505060206200024e8582860162000200565b9150509250929050565b6000620002658262000280565b9050919050565b6000620002798262000258565b9050919050565b600073ffffffffffffffffffffffffffffffffffffffff82169050919050565b60006002820490506001821680620002b957607f821691505b60208210811415620002d057620002cf620002d6565b5b50919050565b7f4e487b7100000000000000000000000000000000000000000000000000000000600052602260045260246000fd5b62000310816200026c565b81146200031c57600080fd5b50565b611041806200032f6000396000f3fe608060405234801561001057600080fd5b50600436106100a95760003560e01c80637547c7a3116100715780637547c7a3146101545780638da5cb5b14610170578063a5ce413b1461018e578063c93c8f3414610198578063d585b852146101c8578063fd5e6dd1146101e6576100a9565b806306fdde03146100ae57806345bc78ab146100cc57806360ab5852146100fc5780636f49712b146101065780636f75cd1414610136575b600080fd5b6100b6610216565b6040516100c39190610d2e565b60405180910390f35b6100e660048036038101906100e19190610acd565b6102a4565b6040516100f39190610db0565b60405180910390f35b6101046102bc565b005b610120600480360381019061011b9190610acd565b6104db565b60405161012d9190610cf8565b60405180910390f35b61013e6104fb565b60405161014b9190610d13565b60405180910390f35b61016e60048036038101906101699190610b1f565b610521565b005b61017861080c565b6040516101859190610c7d565b60405180910390f35b610196610832565b005b6101b260048036038101906101ad9190610acd565b610a09565b6040516101bf9190610cf8565b60405180910390f35b6101d0610a29565b6040516101dd9190610d13565b60405180910390f35b61020060048036038101906101fb9190610b1f565b610a4f565b60405161020d9190610c7d565b60405180910390f35b6000805461022390610edc565b80601f016020809104026020016040519081016040528092919081815260200182805461024f90610edc565b801561029c5780601f106102715761010080835404028352916020019161029c565b820191906000526020600020905b81548152906001019060200180831161027f57829003601f168201915b505050505081565b60056020528060005260406000206000915090505481565b600160009054906101000a900473ffffffffffffffffffffffffffffffffffffffff1673ffffffffffffffffffffffffffffffffffffffff163373ffffffffffffffffffffffffffffffffffffffff161461034c576040517f08c379a000000000000000000000000000000000000000000000000000000000815260040161034390610d50565b60405180910390fd5b60005b6004805490508110156104d857600060048281548110610398577f4e487b7100000000000000000000000000000000000000000000000000000000600052603260045260246000fd5b9060005260206000200160009054906101000a900473ffffffffffffffffffffffffffffffffffffffff1690506000600560008373ffffffffffffffffffffffffffffffffffffffff1673ffffffffffffffffffffffffffffffffffffffff16815260200190815260200160002054905060008111156104c357600360009054906101000a900473ffffffffffffffffffffffffffffffffffffffff1673ffffffffffffffffffffffffffffffffffffffff1663a9059cbb83836040518363ffffffff1660e01b815260040161046f929190610ccf565b602060405180830381600087803b15801561048957600080fd5b505af115801561049d573d6000803e3d6000fd5b505050506040513d601f19601f820116820180604052508101906104c19190610af6565b505b505080806104d090610f0e565b91505061034f565b50565b60076020528060005260406000206000915054906101000a900460ff1681565b600360009054906101000a900473ffffffffffffffffffffffffffffffffffffffff1681565b60008111610564576040517f08c379a000000000000000000000000000000000000000000000000000000000815260040161055b90610d90565b60405180910390fd5b600360009054906101000a900473ffffffffffffffffffffffffffffffffffffffff1673ffffffffffffffffffffffffffffffffffffffff166323b872dd3330846040518463ffffffff1660e01b81526004016105c393929190610c98565b602060405180830381600087803b1580156105dd57600080fd5b505af11580156105f1573d6000803e3d6000fd5b505050506040513d601f19601f820116820180604052508101906106159190610af6565b5080600560003373ffffffffffffffffffffffffffffffffffffffff1673ffffffffffffffffffffffffffffffffffffffff168152602001908152602001600020546106619190610de7565b600560003373ffffffffffffffffffffffffffffffffffffffff1673ffffffffffffffffffffffffffffffffffffffff16815260200190815260200160002081905550600660003373ffffffffffffffffffffffffffffffffffffffff1673ffffffffffffffffffffffffffffffffffffffff16815260200190815260200160002060009054906101000a900460ff16610759576004339080600181540180825580915050600190039060005260206000200160009091909190916101000a81548173ffffffffffffffffffffffffffffffffffffffff021916908373ffffffffffffffffffffffffffffffffffffffff1602179055505b6001600760003373ffffffffffffffffffffffffffffffffffffffff1673ffffffffffffffffffffffffffffffffffffffff16815260200190815260200160002060006101000a81548160ff0219169083151502179055506001600660003373ffffffffffffffffffffffffffffffffffffffff1673ffffffffffffffffffffffffffffffffffffffff16815260200190815260200160002060006101000a81548160ff02191690831515021790555050565b600160009054906101000a900473ffffffffffffffffffffffffffffffffffffffff1681565b6000600560003373ffffffffffffffffffffffffffffffffffffffff1673ffffffffffffffffffffffffffffffffffffffff168152602001908152602001600020549050600081116108b9576040517f08c379a00000000000000000000000000000000000000000000000000000000081526004016108b090610d70565b60405180910390fd5b600360009054906101000a900473ffffffffffffffffffffffffffffffffffffffff1673ffffffffffffffffffffffffffffffffffffffff1663a9059cbb33836040518363ffffffff1660e01b8152600401610916929190610ccf565b602060405180830381600087803b15801561093057600080fd5b505af1158015610944573d6000803e3d6000fd5b505050506040513d601f19601f820116820180604052508101906109689190610af6565b506000600560003373ffffffffffffffffffffffffffffffffffffffff1673ffffffffffffffffffffffffffffffffffffffff168152602001908152602001600020819055506000600760003373ffffffffffffffffffffffffffffffffffffffff1673ffffffffffffffffffffffffffffffffffffffff16815260200190815260200160002060006101000a81548160ff02191690831515021790555050565b60066020528060005260406000206000915054906101000a900460ff1681565b600260009054906101000a900473ffffffffffffffffffffffffffffffffffffffff1681565b60048181548110610a5f57600080fd5b906000526020600020016000915054906101000a900473ffffffffffffffffffffffffffffffffffffffff1681565b600081359050610a9d81610fc6565b92915050565b600081519050610ab281610fdd565b92915050565b600081359050610ac781610ff4565b92915050565b600060208284031215610adf57600080fd5b6000610aed84828501610a8e565b91505092915050565b600060208284031215610b0857600080fd5b6000610b1684828501610aa3565b91505092915050565b600060208284031215610b3157600080fd5b6000610b3f84828501610ab8565b91505092915050565b610b5181610e3d565b82525050565b610b6081610e4f565b82525050565b610b6f81610e85565b82525050565b6000610b8082610dcb565b610b8a8185610dd6565b9350610b9a818560208601610ea9565b610ba381610fb5565b840191505092915050565b6000610bbb601883610dd6565b91507f63616c6c6572206d75737420626520746865206f776e657200000000000000006000830152602082019050919050565b6000610bfb601b83610dd6565b91507f7374616b696e672062616c616e63652063616e6e6f74206265203000000000006000830152602082019050919050565b6000610c3b601283610dd6565b91507f616d6f756e742063616e6e6f74206265203000000000000000000000000000006000830152602082019050919050565b610c7781610e7b565b82525050565b6000602082019050610c926000830184610b48565b92915050565b6000606082019050610cad6000830186610b48565b610cba6020830185610b48565b610cc76040830184610c6e565b949350505050565b6000604082019050610ce46000830185610b48565b610cf16020830184610c6e565b9392505050565b6000602082019050610d0d6000830184610b57565b92915050565b6000602082019050610d286000830184610b66565b92915050565b60006020820190508181036000830152610d488184610b75565b905092915050565b60006020820190508181036000830152610d6981610bae565b9050919050565b60006020820190508181036000830152610d8981610bee565b9050919050565b60006020820190508181036000830152610da981610c2e565b9050919050565b6000602082019050610dc56000830184610c6e565b92915050565b600081519050919050565b600082825260208201905092915050565b6000610df282610e7b565b9150610dfd83610e7b565b9250827fffffffffffffffffffffffffffffffffffffffffffffffffffffffffffffffff03821115610e3257610e31610f57565b5b828201905092915050565b6000610e4882610e5b565b9050919050565b60008115159050919050565b600073ffffffffffffffffffffffffffffffffffffffff82169050919050565b6000819050919050565b6000610e9082610e97565b9050919050565b6000610ea282610e5b565b9050919050565b60005b83811015610ec7578082015181840152602081019050610eac565b83811115610ed6576000848401525b50505050565b60006002820490506001821680610ef457607f821691505b60208210811415610f0857610f07610f86565b5b50919050565b6000610f1982610e7b565b91507fffffffffffffffffffffffffffffffffffffffffffffffffffffffffffffffff821415610f4c57610f4b610f57565b5b600182019050919050565b7f4e487b7100000000000000000000000000000000000000000000000000000000600052601160045260246000fd5b7f4e487b7100000000000000000000000000000000000000000000000000000000600052602260045260246000fd5b6000601f19601f8301169050919050565b610fcf81610e3d565b8114610fda57600080fd5b50565b610fe681610e4f565b8114610ff157600080fd5b50565b610ffd81610e7b565b811461100857600080fd5b5056fea2646970667358221220f3cb4c0477a414f9aad752ad3bc068a1220193212131e3b04314cb288449da1f64736f6c63430008000033",
					"opcodes": "PUSH1 0x80 PUSH1 0x40 MSTORE PUSH1 0x40 MLOAD DUP1 PUSH1 0x40 ADD PUSH1 0x40 MSTORE DUP1 PUSH1 0x11 DUP2 MSTORE PUSH1 0x20 ADD PUSH32 0x4E465444414F20546F6B656E204661726D000000000000000000000000000000 DUP2 MSTORE POP PUSH1 0x0 SWAP1 DUP1 MLOAD SWAP1 PUSH1 0x20 ADD SWAP1 PUSH3 0x51 SWAP3 SWAP2 SWAP1 PUSH3 0x150 JUMP JUMPDEST POP CALLVALUE DUP1 ISZERO PUSH3 0x5F JUMPI PUSH1 0x0 DUP1 REVERT JUMPDEST POP PUSH1 0x40 MLOAD PUSH3 0x1370 CODESIZE SUB DUP1 PUSH3 0x1370 DUP4 CODECOPY DUP2 DUP2 ADD PUSH1 0x40 MSTORE DUP2 ADD SWAP1 PUSH3 0x85 SWAP2 SWAP1 PUSH3 0x217 JUMP JUMPDEST DUP2 PUSH1 0x2 PUSH1 0x0 PUSH2 0x100 EXP DUP2 SLOAD DUP2 PUSH20 0xFFFFFFFFFFFFFFFFFFFFFFFFFFFFFFFFFFFFFFFF MUL NOT AND SWAP1 DUP4 PUSH20 0xFFFFFFFFFFFFFFFFFFFFFFFFFFFFFFFFFFFFFFFF AND MUL OR SWAP1 SSTORE POP DUP1 PUSH1 0x3 PUSH1 0x0 PUSH2 0x100 EXP DUP2 SLOAD DUP2 PUSH20 0xFFFFFFFFFFFFFFFFFFFFFFFFFFFFFFFFFFFFFFFF MUL NOT AND SWAP1 DUP4 PUSH20 0xFFFFFFFFFFFFFFFFFFFFFFFFFFFFFFFFFFFFFFFF AND MUL OR SWAP1 SSTORE POP CALLER PUSH1 0x1 PUSH1 0x0 PUSH2 0x100 EXP DUP2 SLOAD DUP2 PUSH20 0xFFFFFFFFFFFFFFFFFFFFFFFFFFFFFFFFFFFFFFFF MUL NOT AND SWAP1 DUP4 PUSH20 0xFFFFFFFFFFFFFFFFFFFFFFFFFFFFFFFFFFFFFFFF AND MUL OR SWAP1 SSTORE POP POP POP PUSH3 0x31F JUMP JUMPDEST DUP3 DUP1 SLOAD PUSH3 0x15E SWAP1 PUSH3 0x2A0 JUMP JUMPDEST SWAP1 PUSH1 0x0 MSTORE PUSH1 0x20 PUSH1 0x0 KECCAK256 SWAP1 PUSH1 0x1F ADD PUSH1 0x20 SWAP1 DIV DUP2 ADD SWAP3 DUP3 PUSH3 0x182 JUMPI PUSH1 0x0 DUP6 SSTORE PUSH3 0x1CE JUMP JUMPDEST DUP3 PUSH1 0x1F LT PUSH3 0x19D JUMPI DUP1 MLOAD PUSH1 0xFF NOT AND DUP4 DUP1 ADD OR DUP6 SSTORE PUSH3 0x1CE JUMP JUMPDEST DUP3 DUP1 ADD PUSH1 0x1 ADD DUP6 SSTORE DUP3 ISZERO PUSH3 0x1CE JUMPI SWAP2 DUP3 ADD JUMPDEST DUP3 DUP2 GT ISZERO PUSH3 0x1CD JUMPI DUP3 MLOAD DUP3 SSTORE SWAP2 PUSH1 0x20 ADD SWAP2 SWAP1 PUSH1 0x1 ADD SWAP1 PUSH3 0x1B0 JUMP JUMPDEST JUMPDEST POP SWAP1 POP PUSH3 0x1DD SWAP2 SWAP1 PUSH3 0x1E1 JUMP JUMPDEST POP SWAP1 JUMP JUMPDEST JUMPDEST DUP1 DUP3 GT ISZERO PUSH3 0x1FC JUMPI PUSH1 0x0 DUP2 PUSH1 0x0 SWAP1 SSTORE POP PUSH1 0x1 ADD PUSH3 0x1E2 JUMP JUMPDEST POP SWAP1 JUMP JUMPDEST PUSH1 0x0 DUP2 MLOAD SWAP1 POP PUSH3 0x211 DUP2 PUSH3 0x305 JUMP JUMPDEST SWAP3 SWAP2 POP POP JUMP JUMPDEST PUSH1 0x0 DUP1 PUSH1 0x40 DUP4 DUP6 SUB SLT ISZERO PUSH3 0x22B JUMPI PUSH1 0x0 DUP1 REVERT JUMPDEST PUSH1 0x0 PUSH3 0x23B DUP6 DUP3 DUP7 ADD PUSH3 0x200 JUMP JUMPDEST SWAP3 POP POP PUSH1 0x20 PUSH3 0x24E DUP6 DUP3 DUP7 ADD PUSH3 0x200 JUMP JUMPDEST SWAP2 POP POP SWAP3 POP SWAP3 SWAP1 POP JUMP JUMPDEST PUSH1 0x0 PUSH3 0x265 DUP3 PUSH3 0x280 JUMP JUMPDEST SWAP1 POP SWAP2 SWAP1 POP JUMP JUMPDEST PUSH1 0x0 PUSH3 0x279 DUP3 PUSH3 0x258 JUMP JUMPDEST SWAP1 POP SWAP2 SWAP1 POP JUMP JUMPDEST PUSH1 0x0 PUSH20 0xFFFFFFFFFFFFFFFFFFFFFFFFFFFFFFFFFFFFFFFF DUP3 AND SWAP1 POP SWAP2 SWAP1 POP JUMP JUMPDEST PUSH1 0x0 PUSH1 0x2 DUP3 DIV SWAP1 POP PUSH1 0x1 DUP3 AND DUP1 PUSH3 0x2B9 JUMPI PUSH1 0x7F DUP3 AND SWAP2 POP JUMPDEST PUSH1 0x20 DUP3 LT DUP2 EQ ISZERO PUSH3 0x2D0 JUMPI PUSH3 0x2CF PUSH3 0x2D6 JUMP JUMPDEST JUMPDEST POP SWAP2 SWAP1 POP JUMP JUMPDEST PUSH32 0x4E487B7100000000000000000000000000000000000000000000000000000000 PUSH1 0x0 MSTORE PUSH1 0x22 PUSH1 0x4 MSTORE PUSH1 0x24 PUSH1 0x0 REVERT JUMPDEST PUSH3 0x310 DUP2 PUSH3 0x26C JUMP JUMPDEST DUP2 EQ PUSH3 0x31C JUMPI PUSH1 0x0 DUP1 REVERT JUMPDEST POP JUMP JUMPDEST PUSH2 0x1041 DUP1 PUSH3 0x32F PUSH1 0x0 CODECOPY PUSH1 0x0 RETURN INVALID PUSH1 0x80 PUSH1 0x40 MSTORE CALLVALUE DUP1 ISZERO PUSH2 0x10 JUMPI PUSH1 0x0 DUP1 REVERT JUMPDEST POP PUSH1 0x4 CALLDATASIZE LT PUSH2 0xA9 JUMPI PUSH1 0x0 CALLDATALOAD PUSH1 0xE0 SHR DUP1 PUSH4 0x7547C7A3 GT PUSH2 0x71 JUMPI DUP1 PUSH4 0x7547C7A3 EQ PUSH2 0x154 JUMPI DUP1 PUSH4 0x8DA5CB5B EQ PUSH2 0x170 JUMPI DUP1 PUSH4 0xA5CE413B EQ PUSH2 0x18E JUMPI DUP1 PUSH4 0xC93C8F34 EQ PUSH2 0x198 JUMPI DUP1 PUSH4 0xD585B852 EQ PUSH2 0x1C8 JUMPI DUP1 PUSH4 0xFD5E6DD1 EQ PUSH2 0x1E6 JUMPI PUSH2 0xA9 JUMP JUMPDEST DUP1 PUSH4 0x6FDDE03 EQ PUSH2 0xAE JUMPI DUP1 PUSH4 0x45BC78AB EQ PUSH2 0xCC JUMPI DUP1 PUSH4 0x60AB5852 EQ PUSH2 0xFC JUMPI DUP1 PUSH4 0x6F49712B EQ PUSH2 0x106 JUMPI DUP1 PUSH4 0x6F75CD14 EQ PUSH2 0x136 JUMPI JUMPDEST PUSH1 0x0 DUP1 REVERT JUMPDEST PUSH2 0xB6 PUSH2 0x216 JUMP JUMPDEST PUSH1 0x40 MLOAD PUSH2 0xC3 SWAP2 SWAP1 PUSH2 0xD2E JUMP JUMPDEST PUSH1 0x40 MLOAD DUP1 SWAP2 SUB SWAP1 RETURN JUMPDEST PUSH2 0xE6 PUSH1 0x4 DUP1 CALLDATASIZE SUB DUP2 ADD SWAP1 PUSH2 0xE1 SWAP2 SWAP1 PUSH2 0xACD JUMP JUMPDEST PUSH2 0x2A4 JUMP JUMPDEST PUSH1 0x40 MLOAD PUSH2 0xF3 SWAP2 SWAP1 PUSH2 0xDB0 JUMP JUMPDEST PUSH1 0x40 MLOAD DUP1 SWAP2 SUB SWAP1 RETURN JUMPDEST PUSH2 0x104 PUSH2 0x2BC JUMP JUMPDEST STOP JUMPDEST PUSH2 0x120 PUSH1 0x4 DUP1 CALLDATASIZE SUB DUP2 ADD SWAP1 PUSH2 0x11B SWAP2 SWAP1 PUSH2 0xACD JUMP JUMPDEST PUSH2 0x4DB JUMP JUMPDEST PUSH1 0x40 MLOAD PUSH2 0x12D SWAP2 SWAP1 PUSH2 0xCF8 JUMP JUMPDEST PUSH1 0x40 MLOAD DUP1 SWAP2 SUB SWAP1 RETURN JUMPDEST PUSH2 0x13E PUSH2 0x4FB JUMP JUMPDEST PUSH1 0x40 MLOAD PUSH2 0x14B SWAP2 SWAP1 PUSH2 0xD13 JUMP JUMPDEST PUSH1 0x40 MLOAD DUP1 SWAP2 SUB SWAP1 RETURN JUMPDEST PUSH2 0x16E PUSH1 0x4 DUP1 CALLDATASIZE SUB DUP2 ADD SWAP1 PUSH2 0x169 SWAP2 SWAP1 PUSH2 0xB1F JUMP JUMPDEST PUSH2 0x521 JUMP JUMPDEST STOP JUMPDEST PUSH2 0x178 PUSH2 0x80C JUMP JUMPDEST PUSH1 0x40 MLOAD PUSH2 0x185 SWAP2 SWAP1 PUSH2 0xC7D JUMP JUMPDEST PUSH1 0x40 MLOAD DUP1 SWAP2 SUB SWAP1 RETURN JUMPDEST PUSH2 0x196 PUSH2 0x832 JUMP JUMPDEST STOP JUMPDEST PUSH2 0x1B2 PUSH1 0x4 DUP1 CALLDATASIZE SUB DUP2 ADD SWAP1 PUSH2 0x1AD SWAP2 SWAP1 PUSH2 0xACD JUMP JUMPDEST PUSH2 0xA09 JUMP JUMPDEST PUSH1 0x40 MLOAD PUSH2 0x1BF SWAP2 SWAP1 PUSH2 0xCF8 JUMP JUMPDEST PUSH1 0x40 MLOAD DUP1 SWAP2 SUB SWAP1 RETURN JUMPDEST PUSH2 0x1D0 PUSH2 0xA29 JUMP JUMPDEST PUSH1 0x40 MLOAD PUSH2 0x1DD SWAP2 SWAP1 PUSH2 0xD13 JUMP JUMPDEST PUSH1 0x40 MLOAD DUP1 SWAP2 SUB SWAP1 RETURN JUMPDEST PUSH2 0x200 PUSH1 0x4 DUP1 CALLDATASIZE SUB DUP2 ADD SWAP1 PUSH2 0x1FB SWAP2 SWAP1 PUSH2 0xB1F JUMP JUMPDEST PUSH2 0xA4F JUMP JUMPDEST PUSH1 0x40 MLOAD PUSH2 0x20D SWAP2 SWAP1 PUSH2 0xC7D JUMP JUMPDEST PUSH1 0x40 MLOAD DUP1 SWAP2 SUB SWAP1 RETURN JUMPDEST PUSH1 0x0 DUP1 SLOAD PUSH2 0x223 SWAP1 PUSH2 0xEDC JUMP JUMPDEST DUP1 PUSH1 0x1F ADD PUSH1 0x20 DUP1 SWAP2 DIV MUL PUSH1 0x20 ADD PUSH1 0x40 MLOAD SWAP1 DUP2 ADD PUSH1 0x40 MSTORE DUP1 SWAP3 SWAP2 SWAP1 DUP2 DUP2 MSTORE PUSH1 0x20 ADD DUP3 DUP1 SLOAD PUSH2 0x24F SWAP1 PUSH2 0xEDC JUMP JUMPDEST DUP1 ISZERO PUSH2 0x29C JUMPI DUP1 PUSH1 0x1F LT PUSH2 0x271 JUMPI PUSH2 0x100 DUP1 DUP4 SLOAD DIV MUL DUP4 MSTORE SWAP2 PUSH1 0x20 ADD SWAP2 PUSH2 0x29C JUMP JUMPDEST DUP3 ADD SWAP2 SWAP1 PUSH1 0x0 MSTORE PUSH1 0x20 PUSH1 0x0 KECCAK256 SWAP1 JUMPDEST DUP2 SLOAD DUP2 MSTORE SWAP1 PUSH1 0x1 ADD SWAP1 PUSH1 0x20 ADD DUP1 DUP4 GT PUSH2 0x27F JUMPI DUP3 SWAP1 SUB PUSH1 0x1F AND DUP3 ADD SWAP2 JUMPDEST POP POP POP POP POP DUP2 JUMP JUMPDEST PUSH1 0x5 PUSH1 0x20 MSTORE DUP1 PUSH1 0x0 MSTORE PUSH1 0x40 PUSH1 0x0 KECCAK256 PUSH1 0x0 SWAP2 POP SWAP1 POP SLOAD DUP2 JUMP JUMPDEST PUSH1 0x1 PUSH1 0x0 SWAP1 SLOAD SWAP1 PUSH2 0x100 EXP SWAP1 DIV PUSH20 0xFFFFFFFFFFFFFFFFFFFFFFFFFFFFFFFFFFFFFFFF AND PUSH20 0xFFFFFFFFFFFFFFFFFFFFFFFFFFFFFFFFFFFFFFFF AND CALLER PUSH20 0xFFFFFFFFFFFFFFFFFFFFFFFFFFFFFFFFFFFFFFFF AND EQ PUSH2 0x34C JUMPI PUSH1 0x40 MLOAD PUSH32 0x8C379A000000000000000000000000000000000000000000000000000000000 DUP2 MSTORE PUSH1 0x4 ADD PUSH2 0x343 SWAP1 PUSH2 0xD50 JUMP JUMPDEST PUSH1 0x40 MLOAD DUP1 SWAP2 SUB SWAP1 REVERT JUMPDEST PUSH1 0x0 JUMPDEST PUSH1 0x4 DUP1 SLOAD SWAP1 POP DUP2 LT ISZERO PUSH2 0x4D8 JUMPI PUSH1 0x0 PUSH1 0x4 DUP3 DUP2 SLOAD DUP2 LT PUSH2 0x398 JUMPI PUSH32 0x4E487B7100000000000000000000000000000000000000000000000000000000 PUSH1 0x0 MSTORE PUSH1 0x32 PUSH1 0x4 MSTORE PUSH1 0x24 PUSH1 0x0 REVERT JUMPDEST SWAP1 PUSH1 0x0 MSTORE PUSH1 0x20 PUSH1 0x0 KECCAK256 ADD PUSH1 0x0 SWAP1 SLOAD SWAP1 PUSH2 0x100 EXP SWAP1 DIV PUSH20 0xFFFFFFFFFFFFFFFFFFFFFFFFFFFFFFFFFFFFFFFF AND SWAP1 POP PUSH1 0x0 PUSH1 0x5 PUSH1 0x0 DUP4 PUSH20 0xFFFFFFFFFFFFFFFFFFFFFFFFFFFFFFFFFFFFFFFF AND PUSH20 0xFFFFFFFFFFFFFFFFFFFFFFFFFFFFFFFFFFFFFFFF AND DUP2 MSTORE PUSH1 0x20 ADD SWAP1 DUP2 MSTORE PUSH1 0x20 ADD PUSH1 0x0 KECCAK256 SLOAD SWAP1 POP PUSH1 0x0 DUP2 GT ISZERO PUSH2 0x4C3 JUMPI PUSH1 0x3 PUSH1 0x0 SWAP1 SLOAD SWAP1 PUSH2 0x100 EXP SWAP1 DIV PUSH20 0xFFFFFFFFFFFFFFFFFFFFFFFFFFFFFFFFFFFFFFFF AND PUSH20 0xFFFFFFFFFFFFFFFFFFFFFFFFFFFFFFFFFFFFFFFF AND PUSH4 0xA9059CBB DUP4 DUP4 PUSH1 0x40 MLOAD DUP4 PUSH4 0xFFFFFFFF AND PUSH1 0xE0 SHL DUP2 MSTORE PUSH1 0x4 ADD PUSH2 0x46F SWAP3 SWAP2 SWAP1 PUSH2 0xCCF JUMP JUMPDEST PUSH1 0x20 PUSH1 0x40 MLOAD DUP1 DUP4 SUB DUP2 PUSH1 0x0 DUP8 DUP1 EXTCODESIZE ISZERO DUP1 ISZERO PUSH2 0x489 JUMPI PUSH1 0x0 DUP1 REVERT JUMPDEST POP GAS CALL ISZERO DUP1 ISZERO PUSH2 0x49D JUMPI RETURNDATASIZE PUSH1 0x0 DUP1 RETURNDATACOPY RETURNDATASIZE PUSH1 0x0 REVERT JUMPDEST POP POP POP POP PUSH1 0x40 MLOAD RETURNDATASIZE PUSH1 0x1F NOT PUSH1 0x1F DUP3 ADD AND DUP3 ADD DUP1 PUSH1 0x40 MSTORE POP DUP2 ADD SWAP1 PUSH2 0x4C1 SWAP2 SWAP1 PUSH2 0xAF6 JUMP JUMPDEST POP JUMPDEST POP POP DUP1 DUP1 PUSH2 0x4D0 SWAP1 PUSH2 0xF0E JUMP JUMPDEST SWAP2 POP POP PUSH2 0x34F JUMP JUMPDEST POP JUMP JUMPDEST PUSH1 0x7 PUSH1 0x20 MSTORE DUP1 PUSH1 0x0 MSTORE PUSH1 0x40 PUSH1 0x0 KECCAK256 PUSH1 0x0 SWAP2 POP SLOAD SWAP1 PUSH2 0x100 EXP SWAP1 DIV PUSH1 0xFF AND DUP2 JUMP JUMPDEST PUSH1 0x3 PUSH1 0x0 SWAP1 SLOAD SWAP1 PUSH2 0x100 EXP SWAP1 DIV PUSH20 0xFFFFFFFFFFFFFFFFFFFFFFFFFFFFFFFFFFFFFFFF AND DUP2 JUMP JUMPDEST PUSH1 0x0 DUP2 GT PUSH2 0x564 JUMPI PUSH1 0x40 MLOAD PUSH32 0x8C379A000000000000000000000000000000000000000000000000000000000 DUP2 MSTORE PUSH1 0x4 ADD PUSH2 0x55B SWAP1 PUSH2 0xD90 JUMP JUMPDEST PUSH1 0x40 MLOAD DUP1 SWAP2 SUB SWAP1 REVERT JUMPDEST PUSH1 0x3 PUSH1 0x0 SWAP1 SLOAD SWAP1 PUSH2 0x100 EXP SWAP1 DIV PUSH20 0xFFFFFFFFFFFFFFFFFFFFFFFFFFFFFFFFFFFFFFFF AND PUSH20 0xFFFFFFFFFFFFFFFFFFFFFFFFFFFFFFFFFFFFFFFF AND PUSH4 0x23B872DD CALLER ADDRESS DUP5 PUSH1 0x40 MLOAD DUP5 PUSH4 0xFFFFFFFF AND PUSH1 0xE0 SHL DUP2 MSTORE PUSH1 0x4 ADD PUSH2 0x5C3 SWAP4 SWAP3 SWAP2 SWAP1 PUSH2 0xC98 JUMP JUMPDEST PUSH1 0x20 PUSH1 0x40 MLOAD DUP1 DUP4 SUB DUP2 PUSH1 0x0 DUP8 DUP1 EXTCODESIZE ISZERO DUP1 ISZERO PUSH2 0x5DD JUMPI PUSH1 0x0 DUP1 REVERT JUMPDEST POP GAS CALL ISZERO DUP1 ISZERO PUSH2 0x5F1 JUMPI RETURNDATASIZE PUSH1 0x0 DUP1 RETURNDATACOPY RETURNDATASIZE PUSH1 0x0 REVERT JUMPDEST POP POP POP POP PUSH1 0x40 MLOAD RETURNDATASIZE PUSH1 0x1F NOT PUSH1 0x1F DUP3 ADD AND DUP3 ADD DUP1 PUSH1 0x40 MSTORE POP DUP2 ADD SWAP1 PUSH2 0x615 SWAP2 SWAP1 PUSH2 0xAF6 JUMP JUMPDEST POP DUP1 PUSH1 0x5 PUSH1 0x0 CALLER PUSH20 0xFFFFFFFFFFFFFFFFFFFFFFFFFFFFFFFFFFFFFFFF AND PUSH20 0xFFFFFFFFFFFFFFFFFFFFFFFFFFFFFFFFFFFFFFFF AND DUP2 MSTORE PUSH1 0x20 ADD SWAP1 DUP2 MSTORE PUSH1 0x20 ADD PUSH1 0x0 KECCAK256 SLOAD PUSH2 0x661 SWAP2 SWAP1 PUSH2 0xDE7 JUMP JUMPDEST PUSH1 0x5 PUSH1 0x0 CALLER PUSH20 0xFFFFFFFFFFFFFFFFFFFFFFFFFFFFFFFFFFFFFFFF AND PUSH20 0xFFFFFFFFFFFFFFFFFFFFFFFFFFFFFFFFFFFFFFFF AND DUP2 MSTORE PUSH1 0x20 ADD SWAP1 DUP2 MSTORE PUSH1 0x20 ADD PUSH1 0x0 KECCAK256 DUP2 SWAP1 SSTORE POP PUSH1 0x6 PUSH1 0x0 CALLER PUSH20 0xFFFFFFFFFFFFFFFFFFFFFFFFFFFFFFFFFFFFFFFF AND PUSH20 0xFFFFFFFFFFFFFFFFFFFFFFFFFFFFFFFFFFFFFFFF AND DUP2 MSTORE PUSH1 0x20 ADD SWAP1 DUP2 MSTORE PUSH1 0x20 ADD PUSH1 0x0 KECCAK256 PUSH1 0x0 SWAP1 SLOAD SWAP1 PUSH2 0x100 EXP SWAP1 DIV PUSH1 0xFF AND PUSH2 0x759 JUMPI PUSH1 0x4 CALLER SWAP1 DUP1 PUSH1 0x1 DUP2 SLOAD ADD DUP1 DUP3 SSTORE DUP1 SWAP2 POP POP PUSH1 0x1 SWAP1 SUB SWAP1 PUSH1 0x0 MSTORE PUSH1 0x20 PUSH1 0x0 KECCAK256 ADD PUSH1 0x0 SWAP1 SWAP2 SWAP1 SWAP2 SWAP1 SWAP2 PUSH2 0x100 EXP DUP2 SLOAD DUP2 PUSH20 0xFFFFFFFFFFFFFFFFFFFFFFFFFFFFFFFFFFFFFFFF MUL NOT AND SWAP1 DUP4 PUSH20 0xFFFFFFFFFFFFFFFFFFFFFFFFFFFFFFFFFFFFFFFF AND MUL OR SWAP1 SSTORE POP JUMPDEST PUSH1 0x1 PUSH1 0x7 PUSH1 0x0 CALLER PUSH20 0xFFFFFFFFFFFFFFFFFFFFFFFFFFFFFFFFFFFFFFFF AND PUSH20 0xFFFFFFFFFFFFFFFFFFFFFFFFFFFFFFFFFFFFFFFF AND DUP2 MSTORE PUSH1 0x20 ADD SWAP1 DUP2 MSTORE PUSH1 0x20 ADD PUSH1 0x0 KECCAK256 PUSH1 0x0 PUSH2 0x100 EXP DUP2 SLOAD DUP2 PUSH1 0xFF MUL NOT AND SWAP1 DUP4 ISZERO ISZERO MUL OR SWAP1 SSTORE POP PUSH1 0x1 PUSH1 0x6 PUSH1 0x0 CALLER PUSH20 0xFFFFFFFFFFFFFFFFFFFFFFFFFFFFFFFFFFFFFFFF AND PUSH20 0xFFFFFFFFFFFFFFFFFFFFFFFFFFFFFFFFFFFFFFFF AND DUP2 MSTORE PUSH1 0x20 ADD SWAP1 DUP2 MSTORE PUSH1 0x20 ADD PUSH1 0x0 KECCAK256 PUSH1 0x0 PUSH2 0x100 EXP DUP2 SLOAD DUP2 PUSH1 0xFF MUL NOT AND SWAP1 DUP4 ISZERO ISZERO MUL OR SWAP1 SSTORE POP POP JUMP JUMPDEST PUSH1 0x1 PUSH1 0x0 SWAP1 SLOAD SWAP1 PUSH2 0x100 EXP SWAP1 DIV PUSH20 0xFFFFFFFFFFFFFFFFFFFFFFFFFFFFFFFFFFFFFFFF AND DUP2 JUMP JUMPDEST PUSH1 0x0 PUSH1 0x5 PUSH1 0x0 CALLER PUSH20 0xFFFFFFFFFFFFFFFFFFFFFFFFFFFFFFFFFFFFFFFF AND PUSH20 0xFFFFFFFFFFFFFFFFFFFFFFFFFFFFFFFFFFFFFFFF AND DUP2 MSTORE PUSH1 0x20 ADD SWAP1 DUP2 MSTORE PUSH1 0x20 ADD PUSH1 0x0 KECCAK256 SLOAD SWAP1 POP PUSH1 0x0 DUP2 GT PUSH2 0x8B9 JUMPI PUSH1 0x40 MLOAD PUSH32 0x8C379A000000000000000000000000000000000000000000000000000000000 DUP2 MSTORE PUSH1 0x4 ADD PUSH2 0x8B0 SWAP1 PUSH2 0xD70 JUMP JUMPDEST PUSH1 0x40 MLOAD DUP1 SWAP2 SUB SWAP1 REVERT JUMPDEST PUSH1 0x3 PUSH1 0x0 SWAP1 SLOAD SWAP1 PUSH2 0x100 EXP SWAP1 DIV PUSH20 0xFFFFFFFFFFFFFFFFFFFFFFFFFFFFFFFFFFFFFFFF AND PUSH20 0xFFFFFFFFFFFFFFFFFFFFFFFFFFFFFFFFFFFFFFFF AND PUSH4 0xA9059CBB CALLER DUP4 PUSH1 0x40 MLOAD DUP4 PUSH4 0xFFFFFFFF AND PUSH1 0xE0 SHL DUP2 MSTORE PUSH1 0x4 ADD PUSH2 0x916 SWAP3 SWAP2 SWAP1 PUSH2 0xCCF JUMP JUMPDEST PUSH1 0x20 PUSH1 0x40 MLOAD DUP1 DUP4 SUB DUP2 PUSH1 0x0 DUP8 DUP1 EXTCODESIZE ISZERO DUP1 ISZERO PUSH2 0x930 JUMPI PUSH1 0x0 DUP1 REVERT JUMPDEST POP GAS CALL ISZERO DUP1 ISZERO PUSH2 0x944 JUMPI RETURNDATASIZE PUSH1 0x0 DUP1 RETURNDATACOPY RETURNDATASIZE PUSH1 0x0 REVERT JUMPDEST POP POP POP POP PUSH1 0x40 MLOAD RETURNDATASIZE PUSH1 0x1F NOT PUSH1 0x1F DUP3 ADD AND DUP3 ADD DUP1 PUSH1 0x40 MSTORE POP DUP2 ADD SWAP1 PUSH2 0x968 SWAP2 SWAP1 PUSH2 0xAF6 JUMP JUMPDEST POP PUSH1 0x0 PUSH1 0x5 PUSH1 0x0 CALLER PUSH20 0xFFFFFFFFFFFFFFFFFFFFFFFFFFFFFFFFFFFFFFFF AND PUSH20 0xFFFFFFFFFFFFFFFFFFFFFFFFFFFFFFFFFFFFFFFF AND DUP2 MSTORE PUSH1 0x20 ADD SWAP1 DUP2 MSTORE PUSH1 0x20 ADD PUSH1 0x0 KECCAK256 DUP2 SWAP1 SSTORE POP PUSH1 0x0 PUSH1 0x7 PUSH1 0x0 CALLER PUSH20 0xFFFFFFFFFFFFFFFFFFFFFFFFFFFFFFFFFFFFFFFF AND PUSH20 0xFFFFFFFFFFFFFFFFFFFFFFFFFFFFFFFFFFFFFFFF AND DUP2 MSTORE PUSH1 0x20 ADD SWAP1 DUP2 MSTORE PUSH1 0x20 ADD PUSH1 0x0 KECCAK256 PUSH1 0x0 PUSH2 0x100 EXP DUP2 SLOAD DUP2 PUSH1 0xFF MUL NOT AND SWAP1 DUP4 ISZERO ISZERO MUL OR SWAP1 SSTORE POP POP JUMP JUMPDEST PUSH1 0x6 PUSH1 0x20 MSTORE DUP1 PUSH1 0x0 MSTORE PUSH1 0x40 PUSH1 0x0 KECCAK256 PUSH1 0x0 SWAP2 POP SLOAD SWAP1 PUSH2 0x100 EXP SWAP1 DIV PUSH1 0xFF AND DUP2 JUMP JUMPDEST PUSH1 0x2 PUSH1 0x0 SWAP1 SLOAD SWAP1 PUSH2 0x100 EXP SWAP1 DIV PUSH20 0xFFFFFFFFFFFFFFFFFFFFFFFFFFFFFFFFFFFFFFFF AND DUP2 JUMP JUMPDEST PUSH1 0x4 DUP2 DUP2 SLOAD DUP2 LT PUSH2 0xA5F JUMPI PUSH1 0x0 DUP1 REVERT JUMPDEST SWAP1 PUSH1 0x0 MSTORE PUSH1 0x20 PUSH1 0x0 KECCAK256 ADD PUSH1 0x0 SWAP2 POP SLOAD SWAP1 PUSH2 0x100 EXP SWAP1 DIV PUSH20 0xFFFFFFFFFFFFFFFFFFFFFFFFFFFFFFFFFFFFFFFF AND DUP2 JUMP JUMPDEST PUSH1 0x0 DUP2 CALLDATALOAD SWAP1 POP PUSH2 0xA9D DUP2 PUSH2 0xFC6 JUMP JUMPDEST SWAP3 SWAP2 POP POP JUMP JUMPDEST PUSH1 0x0 DUP2 MLOAD SWAP1 POP PUSH2 0xAB2 DUP2 PUSH2 0xFDD JUMP JUMPDEST SWAP3 SWAP2 POP POP JUMP JUMPDEST PUSH1 0x0 DUP2 CALLDATALOAD SWAP1 POP PUSH2 0xAC7 DUP2 PUSH2 0xFF4 JUMP JUMPDEST SWAP3 SWAP2 POP POP JUMP JUMPDEST PUSH1 0x0 PUSH1 0x20 DUP3 DUP5 SUB SLT ISZERO PUSH2 0xADF JUMPI PUSH1 0x0 DUP1 REVERT JUMPDEST PUSH1 0x0 PUSH2 0xAED DUP5 DUP3 DUP6 ADD PUSH2 0xA8E JUMP JUMPDEST SWAP2 POP POP SWAP3 SWAP2 POP POP JUMP JUMPDEST PUSH1 0x0 PUSH1 0x20 DUP3 DUP5 SUB SLT ISZERO PUSH2 0xB08 JUMPI PUSH1 0x0 DUP1 REVERT JUMPDEST PUSH1 0x0 PUSH2 0xB16 DUP5 DUP3 DUP6 ADD PUSH2 0xAA3 JUMP JUMPDEST SWAP2 POP POP SWAP3 SWAP2 POP POP JUMP JUMPDEST PUSH1 0x0 PUSH1 0x20 DUP3 DUP5 SUB SLT ISZERO PUSH2 0xB31 JUMPI PUSH1 0x0 DUP1 REVERT JUMPDEST PUSH1 0x0 PUSH2 0xB3F DUP5 DUP3 DUP6 ADD PUSH2 0xAB8 JUMP JUMPDEST SWAP2 POP POP SWAP3 SWAP2 POP POP JUMP JUMPDEST PUSH2 0xB51 DUP2 PUSH2 0xE3D JUMP JUMPDEST DUP3 MSTORE POP POP JUMP JUMPDEST PUSH2 0xB60 DUP2 PUSH2 0xE4F JUMP JUMPDEST DUP3 MSTORE POP POP JUMP JUMPDEST PUSH2 0xB6F DUP2 PUSH2 0xE85 JUMP JUMPDEST DUP3 MSTORE POP POP JUMP JUMPDEST PUSH1 0x0 PUSH2 0xB80 DUP3 PUSH2 0xDCB JUMP JUMPDEST PUSH2 0xB8A DUP2 DUP6 PUSH2 0xDD6 JUMP JUMPDEST SWAP4 POP PUSH2 0xB9A DUP2 DUP6 PUSH1 0x20 DUP7 ADD PUSH2 0xEA9 JUMP JUMPDEST PUSH2 0xBA3 DUP2 PUSH2 0xFB5 JUMP JUMPDEST DUP5 ADD SWAP2 POP POP SWAP3 SWAP2 POP POP JUMP JUMPDEST PUSH1 0x0 PUSH2 0xBBB PUSH1 0x18 DUP4 PUSH2 0xDD6 JUMP JUMPDEST SWAP2 POP PUSH32 0x63616C6C6572206D75737420626520746865206F776E65720000000000000000 PUSH1 0x0 DUP4 ADD MSTORE PUSH1 0x20 DUP3 ADD SWAP1 POP SWAP2 SWAP1 POP JUMP JUMPDEST PUSH1 0x0 PUSH2 0xBFB PUSH1 0x1B DUP4 PUSH2 0xDD6 JUMP JUMPDEST SWAP2 POP PUSH32 0x7374616B696E672062616C616E63652063616E6E6F7420626520300000000000 PUSH1 0x0 DUP4 ADD MSTORE PUSH1 0x20 DUP3 ADD SWAP1 POP SWAP2 SWAP1 POP JUMP JUMPDEST PUSH1 0x0 PUSH2 0xC3B PUSH1 0x12 DUP4 PUSH2 0xDD6 JUMP JUMPDEST SWAP2 POP PUSH32 0x616D6F756E742063616E6E6F7420626520300000000000000000000000000000 PUSH1 0x0 DUP4 ADD MSTORE PUSH1 0x20 DUP3 ADD SWAP1 POP SWAP2 SWAP1 POP JUMP JUMPDEST PUSH2 0xC77 DUP2 PUSH2 0xE7B JUMP JUMPDEST DUP3 MSTORE POP POP JUMP JUMPDEST PUSH1 0x0 PUSH1 0x20 DUP3 ADD SWAP1 POP PUSH2 0xC92 PUSH1 0x0 DUP4 ADD DUP5 PUSH2 0xB48 JUMP JUMPDEST SWAP3 SWAP2 POP POP JUMP JUMPDEST PUSH1 0x0 PUSH1 0x60 DUP3 ADD SWAP1 POP PUSH2 0xCAD PUSH1 0x0 DUP4 ADD DUP7 PUSH2 0xB48 JUMP JUMPDEST PUSH2 0xCBA PUSH1 0x20 DUP4 ADD DUP6 PUSH2 0xB48 JUMP JUMPDEST PUSH2 0xCC7 PUSH1 0x40 DUP4 ADD DUP5 PUSH2 0xC6E JUMP JUMPDEST SWAP5 SWAP4 POP POP POP POP JUMP JUMPDEST PUSH1 0x0 PUSH1 0x40 DUP3 ADD SWAP1 POP PUSH2 0xCE4 PUSH1 0x0 DUP4 ADD DUP6 PUSH2 0xB48 JUMP JUMPDEST PUSH2 0xCF1 PUSH1 0x20 DUP4 ADD DUP5 PUSH2 0xC6E JUMP JUMPDEST SWAP4 SWAP3 POP POP POP JUMP JUMPDEST PUSH1 0x0 PUSH1 0x20 DUP3 ADD SWAP1 POP PUSH2 0xD0D PUSH1 0x0 DUP4 ADD DUP5 PUSH2 0xB57 JUMP JUMPDEST SWAP3 SWAP2 POP POP JUMP JUMPDEST PUSH1 0x0 PUSH1 0x20 DUP3 ADD SWAP1 POP PUSH2 0xD28 PUSH1 0x0 DUP4 ADD DUP5 PUSH2 0xB66 JUMP JUMPDEST SWAP3 SWAP2 POP POP JUMP JUMPDEST PUSH1 0x0 PUSH1 0x20 DUP3 ADD SWAP1 POP DUP2 DUP2 SUB PUSH1 0x0 DUP4 ADD MSTORE PUSH2 0xD48 DUP2 DUP5 PUSH2 0xB75 JUMP JUMPDEST SWAP1 POP SWAP3 SWAP2 POP POP JUMP JUMPDEST PUSH1 0x0 PUSH1 0x20 DUP3 ADD SWAP1 POP DUP2 DUP2 SUB PUSH1 0x0 DUP4 ADD MSTORE PUSH2 0xD69 DUP2 PUSH2 0xBAE JUMP JUMPDEST SWAP1 POP SWAP2 SWAP1 POP JUMP JUMPDEST PUSH1 0x0 PUSH1 0x20 DUP3 ADD SWAP1 POP DUP2 DUP2 SUB PUSH1 0x0 DUP4 ADD MSTORE PUSH2 0xD89 DUP2 PUSH2 0xBEE JUMP JUMPDEST SWAP1 POP SWAP2 SWAP1 POP JUMP JUMPDEST PUSH1 0x0 PUSH1 0x20 DUP3 ADD SWAP1 POP DUP2 DUP2 SUB PUSH1 0x0 DUP4 ADD MSTORE PUSH2 0xDA9 DUP2 PUSH2 0xC2E JUMP JUMPDEST SWAP1 POP SWAP2 SWAP1 POP JUMP JUMPDEST PUSH1 0x0 PUSH1 0x20 DUP3 ADD SWAP1 POP PUSH2 0xDC5 PUSH1 0x0 DUP4 ADD DUP5 PUSH2 0xC6E JUMP JUMPDEST SWAP3 SWAP2 POP POP JUMP JUMPDEST PUSH1 0x0 DUP2 MLOAD SWAP1 POP SWAP2 SWAP1 POP JUMP JUMPDEST PUSH1 0x0 DUP3 DUP3 MSTORE PUSH1 0x20 DUP3 ADD SWAP1 POP SWAP3 SWAP2 POP POP JUMP JUMPDEST PUSH1 0x0 PUSH2 0xDF2 DUP3 PUSH2 0xE7B JUMP JUMPDEST SWAP2 POP PUSH2 0xDFD DUP4 PUSH2 0xE7B JUMP JUMPDEST SWAP3 POP DUP3 PUSH32 0xFFFFFFFFFFFFFFFFFFFFFFFFFFFFFFFFFFFFFFFFFFFFFFFFFFFFFFFFFFFFFFFF SUB DUP3 GT ISZERO PUSH2 0xE32 JUMPI PUSH2 0xE31 PUSH2 0xF57 JUMP JUMPDEST JUMPDEST DUP3 DUP3 ADD SWAP1 POP SWAP3 SWAP2 POP POP JUMP JUMPDEST PUSH1 0x0 PUSH2 0xE48 DUP3 PUSH2 0xE5B JUMP JUMPDEST SWAP1 POP SWAP2 SWAP1 POP JUMP JUMPDEST PUSH1 0x0 DUP2 ISZERO ISZERO SWAP1 POP SWAP2 SWAP1 POP JUMP JUMPDEST PUSH1 0x0 PUSH20 0xFFFFFFFFFFFFFFFFFFFFFFFFFFFFFFFFFFFFFFFF DUP3 AND SWAP1 POP SWAP2 SWAP1 POP JUMP JUMPDEST PUSH1 0x0 DUP2 SWAP1 POP SWAP2 SWAP1 POP JUMP JUMPDEST PUSH1 0x0 PUSH2 0xE90 DUP3 PUSH2 0xE97 JUMP JUMPDEST SWAP1 POP SWAP2 SWAP1 POP JUMP JUMPDEST PUSH1 0x0 PUSH2 0xEA2 DUP3 PUSH2 0xE5B JUMP JUMPDEST SWAP1 POP SWAP2 SWAP1 POP JUMP JUMPDEST PUSH1 0x0 JUMPDEST DUP4 DUP2 LT ISZERO PUSH2 0xEC7 JUMPI DUP1 DUP3 ADD MLOAD DUP2 DUP5 ADD MSTORE PUSH1 0x20 DUP2 ADD SWAP1 POP PUSH2 0xEAC JUMP JUMPDEST DUP4 DUP2 GT ISZERO PUSH2 0xED6 JUMPI PUSH1 0x0 DUP5 DUP5 ADD MSTORE JUMPDEST POP POP POP POP JUMP JUMPDEST PUSH1 0x0 PUSH1 0x2 DUP3 DIV SWAP1 POP PUSH1 0x1 DUP3 AND DUP1 PUSH2 0xEF4 JUMPI PUSH1 0x7F DUP3 AND SWAP2 POP JUMPDEST PUSH1 0x20 DUP3 LT DUP2 EQ ISZERO PUSH2 0xF08 JUMPI PUSH2 0xF07 PUSH2 0xF86 JUMP JUMPDEST JUMPDEST POP SWAP2 SWAP1 POP JUMP JUMPDEST PUSH1 0x0 PUSH2 0xF19 DUP3 PUSH2 0xE7B JUMP JUMPDEST SWAP2 POP PUSH32 0xFFFFFFFFFFFFFFFFFFFFFFFFFFFFFFFFFFFFFFFFFFFFFFFFFFFFFFFFFFFFFFFF DUP3 EQ ISZERO PUSH2 0xF4C JUMPI PUSH2 0xF4B PUSH2 0xF57 JUMP JUMPDEST JUMPDEST PUSH1 0x1 DUP3 ADD SWAP1 POP SWAP2 SWAP1 POP JUMP JUMPDEST PUSH32 0x4E487B7100000000000000000000000000000000000000000000000000000000 PUSH1 0x0 MSTORE PUSH1 0x11 PUSH1 0x4 MSTORE PUSH1 0x24 PUSH1 0x0 REVERT JUMPDEST PUSH32 0x4E487B7100000000000000000000000000000000000000000000000000000000 PUSH1 0x0 MSTORE PUSH1 0x22 PUSH1 0x4 MSTORE PUSH1 0x24 PUSH1 0x0 REVERT JUMPDEST PUSH1 0x0 PUSH1 0x1F NOT PUSH1 0x1F DUP4 ADD AND SWAP1 POP SWAP2 SWAP1 POP JUMP JUMPDEST PUSH2 0xFCF DUP2 PUSH2 0xE3D JUMP JUMPDEST DUP2 EQ PUSH2 0xFDA JUMPI PUSH1 0x0 DUP1 REVERT JUMPDEST POP JUMP JUMPDEST PUSH2 0xFE6 DUP2 PUSH2 0xE4F JUMP JUMPDEST DUP2 EQ PUSH2 0xFF1 JUMPI PUSH1 0x0 DUP1 REVERT JUMPDEST POP JUMP JUMPDEST PUSH2 0xFFD DUP2 PUSH2 0xE7B JUMP JUMPDEST DUP2 EQ PUSH2 0x1008 JUMPI PUSH1 0x0 DUP1 REVERT JUMPDEST POP JUMP INVALID LOG2 PUSH5 0x6970667358 0x22 SLT KECCAK256 RETURN 0xCB 0x4C DIV PUSH24 0xA414F9AAD752AD3BC068A1220193212131E3B04314CB2884 0x49 0xDA 0x1F PUSH5 0x736F6C6343 STOP ADDMOD STOP STOP CALLER "
				},
				"gasEstimates": {
					"creation": {
						"codeDepositCost": "832200",
						"executionCost": "infinite",
						"totalCost": "infinite"
					},
					"external": {
						"DAOToken()": "1345",
						"DappToken()": "1346",
						"hasStaked(address)": "1611",
						"isStaking(address)": "1612",
						"issueTokens()": "infinite",
						"name()": "infinite",
						"owner()": "1236",
						"stakeTokens(uint256)": "infinite",
						"stakers(uint256)": "2466",
						"stakingBalance(address)": "1537",
						"unstakeTokens()": "infinite"
					}
				},
				"methodIdentifiers": {
					"DAOToken()": "d585b852",
					"DappToken()": "6f75cd14",
					"hasStaked(address)": "c93c8f34",
					"isStaking(address)": "6f49712b",
					"issueTokens()": "60ab5852",
					"name()": "06fdde03",
					"owner()": "8da5cb5b",
					"stakeTokens(uint256)": "7547c7a3",
					"stakers(uint256)": "fd5e6dd1",
					"stakingBalance(address)": "45bc78ab",
					"unstakeTokens()": "a5ce413b"
				}
			},
			"storageLayout": {
				"storage": [
					{
						"astId": 413,
						"contract": "contracts/NFTDAO_staking.sol:TokenFarm",
						"label": "name",
						"offset": 0,
						"slot": "0",
						"type": "t_string_storage"
					},
					{
						"astId": 415,
						"contract": "contracts/NFTDAO_staking.sol:TokenFarm",
						"label": "owner",
						"offset": 0,
						"slot": "1",
						"type": "t_address"
					},
					{
						"astId": 418,
						"contract": "contracts/NFTDAO_staking.sol:TokenFarm",
						"label": "DAOToken",
						"offset": 0,
						"slot": "2",
						"type": "t_contract(ERC20)407"
					},
					{
						"astId": 421,
						"contract": "contracts/NFTDAO_staking.sol:TokenFarm",
						"label": "DappToken",
						"offset": 0,
						"slot": "3",
						"type": "t_contract(ERC20)407"
					},
					{
						"astId": 424,
						"contract": "contracts/NFTDAO_staking.sol:TokenFarm",
						"label": "stakers",
						"offset": 0,
						"slot": "4",
						"type": "t_array(t_address)dyn_storage"
					},
					{
						"astId": 428,
						"contract": "contracts/NFTDAO_staking.sol:TokenFarm",
						"label": "stakingBalance",
						"offset": 0,
						"slot": "5",
						"type": "t_mapping(t_address,t_uint256)"
					},
					{
						"astId": 432,
						"contract": "contracts/NFTDAO_staking.sol:TokenFarm",
						"label": "hasStaked",
						"offset": 0,
						"slot": "6",
						"type": "t_mapping(t_address,t_bool)"
					},
					{
						"astId": 436,
						"contract": "contracts/NFTDAO_staking.sol:TokenFarm",
						"label": "isStaking",
						"offset": 0,
						"slot": "7",
						"type": "t_mapping(t_address,t_bool)"
					}
				],
				"types": {
					"t_address": {
						"encoding": "inplace",
						"label": "address",
						"numberOfBytes": "20"
					},
					"t_array(t_address)dyn_storage": {
						"base": "t_address",
						"encoding": "dynamic_array",
						"label": "address[]",
						"numberOfBytes": "32"
					},
					"t_bool": {
						"encoding": "inplace",
						"label": "bool",
						"numberOfBytes": "1"
					},
					"t_contract(ERC20)407": {
						"encoding": "inplace",
						"label": "contract ERC20",
						"numberOfBytes": "20"
					},
					"t_mapping(t_address,t_bool)": {
						"encoding": "mapping",
						"key": "t_address",
						"label": "mapping(address => bool)",
						"numberOfBytes": "32",
						"value": "t_bool"
					},
					"t_mapping(t_address,t_uint256)": {
						"encoding": "mapping",
						"key": "t_address",
						"label": "mapping(address => uint256)",
						"numberOfBytes": "32",
						"value": "t_uint256"
					},
					"t_string_storage": {
						"encoding": "bytes",
						"label": "string",
						"numberOfBytes": "32"
					},
					"t_uint256": {
						"encoding": "inplace",
						"label": "uint256",
						"numberOfBytes": "32"
					}
				}
			},
			"userdoc": {
				"kind": "user",
				"methods": {},
				"version": 1
			}
		}
	}
}